:0200000460009A
:100000004643464200000156000000000103030081
:1000100000000000000000000000000000000000E0
:1000200000000000000000000000000000000000D0
:1000300000000000000000000000000000000000C0
:1000400000000000010408000000000000000000A3
:100050000000800000000000000000000000000020
:100060000000000000000000000000000000000090
:100070000000000000000000000000000000000080
:10008000EB04180A063204260000000000000000FD
:10009000050404240000000000000000000000002F
:1000A0000000000000000000000000000000000050
:1000B0000604000000000000000000000000000036
:1000C0000000000000000000000000000000000030
:1000D00020041808000000000000000000000000DC
:1000E0000000000000000000000000000000000010
:1000F0000000000000000000000000000000000000
:10010000D8041808000000000000000000000000F3
:100110000204180804200000000000000000000095
:1001200000000000000000000000000000000000CF
:10013000600400000000000000000000000000005B
:1001400000000000000000000000000000000000AF
:10015000000000000000000000000000000000009F
:10016000000000000000000000000000000000008F
:10017000000000000000000000000000000000007F
:10018000000000000000000000000000000000006F
:10019000000000000000000000000000000000005F
:1001A000000000000000000000000000000000004F
:1001B000000000000000000000000000000000003F
:1001C000000100000010000001000000000000001D
:1001D000000001000000000000000000000000001E
:1001E000000000000000000000000000000000000F
:1001F00000000000000000000000000000000000FF
:10020000FFFFFFFFFFFFFFFFFFFFFFFFFFFFFFFFFE
:10021000FFFFFFFFFFFFFFFFFFFFFFFFFFFFFFFFEE
:10100000D10020434D1600600000000000000000E9
:10101000201000600010006000A8006000000000C8
:101020000000006000B4000000000000FFFFFFFFB0
:10103000FFFFFFFFFFFFFFFFFFFFFFFFFFFFFFFFC0
:10104000FFFFFFFFFFFFFFFFFFFFFFFFFFFFFFFFB0
:10105000FFFFFFFFFFFFFFFFFFFFFFFFFFFFFFFFA0
:10106000FFFFFFFFFFFFFFFFFFFFFFFFFFFFFFFF90
:10140000814205D051F8043B40F8043B8242F9D8B0
:10141000704700BF044A05494FF0000342F8043BFF
:101420009142FBD8704700BFC0160020E01E00208C
:101430002DE98848BFF34F8F00BF00BF00BF00BF3A
:1014400000F018F9684B0822C3F8542100BF00BF10
:1014500000BF00BF00BF00BF00BF00BF00BF00BF94
:1014600000BF00BF00BF00BF00BF00BF5F4A6049B0
:101470006048FFF7C5FF604A60496148FFF7C0FF59
:10148000604CFFF7C7FF4FF470004FF0E0210023DE
:101490005D4AC1F8880D44F823200133B02BFAD1FE
:1014A0005A4B80215A4A03F8011B9342FBD14FF05B
:1014B000E0254D4E4FF08039DFF884B1DFF884A18C
:1014C0004FF0FF31C5F8084D0027C6F80491C6F863
:1014D00000B1C6F8F490C6F8F0A0D5F8243DDFF8C6
:1014E000688143F4E0234B4AC5F8243DD8F81C300A
:1014F00023F07F0343F04003C8F81C30D8F82430B1
:1015000023F07F0343F04003C8F824309166D1668E
:101510001167516700F0B6F83F4B4049A363404B59
:10152000E36363236B610323AF612B613D4BC5F81C
:10153000203DD5F8FC3D43F08073C5F8FC3D3A4BA7
:101540001A6842F001021A605B680B6000F0E4FA6E
:10155000C6F804913548C6F800B1C6F8F490C6F84C
:10156000F0A000F071FCD8F86C10314B314A41F416
:101570004051C8F86C101F60C3F80871C3F81871A7
:10158000C3F82871C3F83871936BDB0708D442F6AF
:101590001563294951651365936B43F00103936308
:1015A000244A264C936843F00113936000F0F2F84C
:1015B00000F016FC00F058FC00F0DCFA00F05CF8DB
:1015C0002368132BFCD900F06DFB2368B3F5967FDD
:1015D000FBD300F055F800F051F800F049FC00F0A2
:1015E00037FC30BFFDE700BF00800D40686F000092
:1015F000901F006000000000C0160020FC8E0060FC
:101600000000002000140020D542000000E400E0AB
:10161000A0E400E000C00A40D55600007C1E002077
:10162000D956000000002020001000E00046C3232F
:101630000040084000400D400000C056801E0020C1
:101640001B1018200C0D111300C00F40054B4FF458
:101650002A01054A05485A641864054A9963954663
:10166000FFF7E6FE00C00A40ABAAAAAA07002000C6
:1016700000800720704700BF704700BF704700BF61
:1016800000BF704710B44FF0E02300211024314810
:10169000C3F8941DC3F89C4D1124C3F8A00D2E4827
:1016A000C3F89C4D1224C3F8A00D2C48C3F89C4DE0
:1016B0002B4AC3F8A00D2B4C42F015022A48C3F860
:1016C0009C4DC3F8A00D294C2948C3F89C4DC3F884
:1016D000A00D284CC3F89C2D2748284AC3F8A04DDC
:1016E000C3F89C0DC3F8A02D02F5A022244C0C32A7
:1016F0002448C3F89C4DC3F8A02D234AC3F89C0D81
:10170000224CC3F8A02D02F14062C3F89C4D204842
:10171000C3F8A02D0C32C3F89C0DC3F8A02D00BF58
:1017200000BF00BF00BF00BF0122C3F8942DBFF36C
:101730004F8FBFF36F8FC3F8501FBFF34F8FBFF3AF
:101740006F8FD3F8142D5DF8044B42F44032C3F888
:10175000142D70473F0000102500080709001000F5
:10176000E01E0020130020002100020714000020CA
:1017700025000813090000101600202027000B1375
:1017800017000040180000602F000B0719000070C0
:101790001A000080F0B5B84B1822B84E0120B84F9F
:1017A00083B0C3F85C62B749C3F86072B64DC3F842
:1017B0006462A6F53046B54CC3F86862C3F86C5253
:1017C000C3F87052C3F87452C3F8785248F20C75DB
:1017D000DA661A675A679A67DA67C3F88020C3F82F
:1017E0008420C3F88820C1F82C03A94AC1F830032B
:1017F000C1F83403C1F83803C1F83C03C1F8500301
:10180000A169A44B0A40A448A4491343A44AA36174
:10181000D4F8843043F00C03C4F884304FF0FF3424
:10182000036843F00203036003682B404FF4005544
:101830001A439C4B026044608A689B4C13409B4A4D
:1018400043F000538360C36823F07803C360036AE6
:10185000134023430362036A1340954A2343954C84
:1018600043628262C2620022D1F8B83023F03F03A3
:1018700043F00103C0F8B830D1F8BC308E4923F0F2
:101880003F0343F00103C0F8BC3040F2056302613E
:1018900005660467C0F88030456644670224C0F8D6
:1018A0008430036823F0020303608161834B844921
:1018B000C46143F8042B8B42FBD1774A136843F091
:1018C00001031360136813F00103FBD17A4802216E
:1018D00040F2F564906140F29940D16140F2664176
:1018E000C2F8004242F20144C2F810127549C2F82F
:1018F0002002C2F8301240F235417348C2F8344237
:10190000C2F84012714CC2F8500242F201207049F4
:10191000C2F854120121C2F86042C2F864025E4863
:10192000C2F8A030C2F8A430C2F8B0104369DA0798
:10193000FCD5012300244FF4803257494361C0F89D
:10194000A040C0F8A420C0F8B0304B69DB07FCD53C
:10195000012300244FF400304F4A4B61C1F8A040EE
:10196000C1F8A400C1F8B0305369DF07FCD50123EA
:101970000024584848495361C2F8A040C2F8A40066
:10198000C2F8B0304B69DE07FCD5D1F8003145F61E
:101990000D5221209BB24861934265D100244FF43F
:1019A000802201233C48C1F8A040C1F8A420C1F81E
:1019B000B0304369DD07FCD501234FF4000400215A
:1019C000354A4361C0F8A040C0F8A410C0F8B03058
:1019D0005369DC07FCD501234FF400044FF4803039
:1019E0002D495361C2F8A040C2F8A400C2F8B0303B
:1019F0004B69D807FCD501234FF400044FF40030A5
:101A0000254A4B61C1F8A040C1F8A400C1F8B0302C
:101A10005369D907FCD501234FF400042D481E4912
:101A20005361C2F8A040C2F8A400C2F8B0304B69BC
:101A3000DA07FCD5D1F8003145F60D5221209BB2D2
:101A40004861934250D008254FF4000422490020F9
:101A5000224B234A009015705A1A01232148224430
:101A600000F0FEF903B0F0BD1E4B0022C3E90022D6
:101A7000C3E9022203B0F0BD00801F40F9B00100AD
:101A8000F910010000841F40F970010000C00F40F0
:101A9000FFFCFF1F000300A000402A4000802A40F6
:101AA0001200FFFFFF37F7004000008000FFF07CCE
:101AB000FF000F8363000200F05AF05A00422A40F0
:101AC00000432A409F041830EB06180A3806180A0B
:101AD00006320126040003000000007000000070C0
:101AE000A61E0020E01C00204FF400044FF48022CA
:101AF00001230848C1F8A040C1F8A420C1F8B030C3
:101B00004369DB07FCD5012310254FF08074436146
:101B10009CE700BF00402A40F0B4154A40274FF42C
:101B200080314FF480564FF400554FF4404443F257
:101B30004200136913F0020F0ED113F4005F0FD0AF
:101B400013F4805F0ED0002BF3DA13F4803F0BD137
:101B50005B060BD5F0BC7047946151619061E8E77A
:101B60005561E6E75661E4E79161E2E75761E0E736
:101B700000800D403F4A03203F49F3EE095AD2F856
:101B800080304FF0000C9FED3D6A23F001039FED84
:101B90003C5A30B4C2F88030C2F89000D1F8E0105E
:101BA000384DCBB2384C39482B6007EE903A0B0DCC
:101BB000C1F30B21F8EEE77A06EE903A07EE101A21
:101BC000334BB8EEC77A2160F8EEE66A314937EE5A
:101BD000C66A37EEC55A76EEC76A77EEE57A26EE24
:101BE000266AC3ED006A25EE265AD2F8803067EEE9
:101BF000A64AC0ED007AC6EE275A274885EE276A26
:101C0000C4EEA76A75EE875AFCEEE55A36EE076A0F
:101C100015EE904ABCEEC66A43EA045376EE877A24
:101C2000C2F8803016EE103AD2F89041FCEEE77A16
:101C300001EA0341214317EE903AC2F89011C3F331
:101C40000B03D2F890110B431449C2F89031D2F82B
:101C5000803043F00203C2F88030114B80F840C05E
:101C6000C1F840314FF0E023012230BCC3F8082115
:101C7000704700BF00810D4000441F400000AA4291
:101C80000000B4426C1E0020681E0020701E002060
:101C9000741E00200000FF0F00E400E0001400208C
:101CA00095440000314B40F6617210B5C3F8202115
:101CB00040F2044400F0D0F82D4A2E49D2F880308A
:101CC0002D4843F00303C2F880302C4BC1F860412B
:101CD00002681A4203D1D1F8A8319A071BD0254ACD
:101CE0004FF00041244B5963D2F8403143F00203D6
:101CF000C2F84031D2F840319B07FBD44FF400309A
:101D00004FF0E0211C4B4FF00042C1F88C0219202B
:101D10009A6300F095F8184A4FF08040154C002166
:101D200090630A20164B11604FF42072C4F8A8018A
:101D3000184600F0A1F84FF4800203464FF48100EA
:101D400040F243111860C4F858311A640D4B0E4A22
:101D5000C4F84811C3F804224FF0E0224FF40031D8
:101D60000123C2F80C11C4F8403110BD00800D40B1
:101D700000C00F4000002E4000900D40001C1E00CF
:101D800000000020001400207D46000008B50E4B26
:101D90001B6E9B0700D4FBBE72B60C4B00200C4A96
:101DA000C3F8400103F160430A49A3F55F231164BE
:101DB0009D46BFF34F8F4FF400130748074ADB6976
:101DC00002609B68984700BF00441F4000002E40FF
:101DD00000C00A400300200000802020000012EB19
:101DE000104BA020104AD96E41F4403110B4D9668E
:101DF00040F23764D96E41F44071D96654649064FE
:101E0000936C1B06FCD4094A40F23761A02351644D
:101E10009364936C13F08003FBD1054A13705DF853
:101E2000044B704700C00F4000400C4000800C4045
:101E3000A51E0020F8B500BFF8BC08BC9E46704740
:101E40005FF800F0813900005FF800F09136000083
:101E50005FF800F0493C00005FF800F0ED4D000035
:101E60005FF800F0695700005FF800F0C54100001E
:101E70005FF800F0F56200005FF800F045620000D6
:081E800005010000492F0000DC
:101E880016035500530042002000530065007200FD
:101E9800690061006C0000001803540065006500CB
:101EA8006E00730079006400750069006E006F00B1
:101EB8000403090409026200030100C032080B0090
:101EC80002020201000904000001020201000524C7
:101ED800001001052401010104240206052406005E
:101EE800010705820310001009040100020A00001E
:101EF80000070503024000000705840240000009AE
:101F080004020002FF6AFF00070581024000010782
:101F1800050102400001000009026200030100C03F
:101F280032080B000202020100090400000102024B
:101F38000100052400100105240101010424020602
:101F480005240600010705820310000509040100A5
:101F5800020A0000000705030200020007058402C8
:101F68000002000904020002FF6AC7000705810297
:101F78000002010705010200020100000A06000232
:081F8800EF020140010000001E
:101F90000000000000000000000000000000000041
:101FA0000000000000000000000000000000000031
:101FB000F8B54FF084439D695A6915400DD0254FFF
:101FC00001269D6195FAA5F4B4FA84F457F82430FB
:101FD00006FA04F49847A543F4D11F4B9D695A694A
:101FE00015400DD01D4F01269D6195FAA5F4B4FA58
:101FF00084F457F8243006FA04F49847A543F4D142
:10200000174B9D695A6915400DD0164F01269D61E9
:1020100095FAA5F4B4FA84F457F8243006FA04F4D7
:102020009847A543F4D1104B9D695A6915400DD0CE
:102030000E4F01269D6195FAA5F4B4FA84F457F881
:10204000243006FA04F49847A543F4D1BFF34F8F28
:10205000F8BD00BFB40F0020004000423410002043
:1020600000800042B410002000C000423411002063
:102070000548064B1B1AD90F01EBA301491002D0EA
:10208000034B03B118477047C0160020C01600204C
:102090000000000008B5054B1BB105490548AFF32A
:1020A0000080BDE80840FFF7E3BF00BF000000006C
:1020B000181E002000B4006038B5054CA4F13005AE
:1020C0000C3C204603F0DCF9AC42F9D138BD00BF2E
:1020D000381D00200021007B03F060BF38B50D469D
:1020E00004460121007A03F091FC207B85EAE5712A
:1020F000A1EBE571BDE8384003F050BF38B50D469F
:1021000004460021007A03F081FC207B85EAE5711A
:10211000A1EBE571BDE8384003F040BF224BD3F896
:10212000C020D2E90010D3680968006810B41842D2
:10213000946801EA04012ED0137C03F00303D9B99B
:1021400043F008039908013B11740D2B0BD8DFE80D
:1021500003F00D071C070A160D0D160A071C070DC4
:102160005369013B53615DF8044B704753695DF857
:10217000044B01335361704743F00403E0E75369B4
:102180005DF8044B023B5361704753695DF8044BA3
:10219000023353617047137C03F003030029D1D04D
:1021A00043F00403CEE700BFDC180020224BD3F835
:1021B000C420D2E90010D3680968006810B418423E
:1021C000946801EA04012ED0137C03F00303D9B90B
:1021D00043F008039908013B11740D2B0BD8DFE87D
:1021E00003F00D071C070A160D0D160A071C070D34
:1021F0005369013B53615DF8044B704753695DF8C7
:10220000044B01335361704743F00403E0E7536923
:102210005DF8044B023B5361704753695DF8044B12
:10222000023353617047137C03F003030029D1D0BC
:1022300043F00403CEE700BFDC180020224BD3F8A4
:10224000C820D2E90010D3680968006810B41842A9
:10225000946801EA04012ED0137C03F00303D9B97A
:1022600043F008039908013B11740D2B0BD8DFE8EC
:1022700003F00D071C070A160D0D160A071C070DA3
:102280005369013B53615DF8044B704753695DF836
:10229000044B01335361704743F00403E0E7536993
:1022A0005DF8044B023B5361704753695DF8044B82
:1022B000023353617047137C03F003030029D1D02C
:1022C00043F00403CEE700BFDC180020224BD3F814
:1022D000CC20D2E90010D3680968006810B4184215
:1022E000946801EA04012ED0137C03F00303D9B9EA
:1022F00043F008039908013B11740D2B0BD8DFE85C
:1023000003F00D071C070A160D0D160A071C070D12
:102310005369013B53615DF8044B704753695DF8A5
:10232000044B01335361704743F00403E0E7536902
:102330005DF8044B023B5361704753695DF8044BF1
:10234000023353617047137C03F003030029D1D09B
:1023500043F00403CEE700BFDC180020224BD3F883
:10236000D820D2E90010D3680968006810B4184278
:10237000946801EA04012ED0137C03F00303D9B959
:1023800043F008039908013B11740D2B0BD8DFE8CB
:1023900003F00D071C070A160D0D160A071C070D82
:1023A0005369013B53615DF8044B704753695DF815
:1023B000044B01335361704743F00403E0E7536972
:1023C0005DF8044B023B5361704753695DF8044B61
:1023D000023353617047137C03F003030029D1D00B
:1023E00043F00403CEE700BFDC180020224BD3F8F3
:1023F000D020D2E90010D3680968006810B41842F0
:10240000946801EA04012ED0137C03F00303D9B9C8
:1024100043F008039908013B11740D2B0BD8DFE83A
:1024200003F00D071C070A160D0D160A071C070DF1
:102430005369013B53615DF8044B704753695DF884
:10244000044B01335361704743F00403E0E75369E1
:102450005DF8044B023B5361704753695DF8044BD0
:10246000023353617047137C03F003030029D1D07A
:1024700043F00403CEE700BFDC180020224BD3F862
:10248000D420D2E90010D3680968006810B418425B
:10249000946801EA04012ED0137C03F00303D9B938
:1024A00043F008039908013B11740D2B0BD8DFE8AA
:1024B00003F00D071C070A160D0D160A071C070D61
:1024C0005369013B53615DF8044B704753695DF8F4
:1024D000044B01335361704743F00403E0E7536951
:1024E0005DF8044B023B5361704753695DF8044B40
:1024F000023353617047137C03F003030029D1D0EA
:1025000043F00403CEE700BFDC180020224BD3F8D1
:102510008020D2E90010D3680968006810B418421E
:10252000946801EA04012ED0137C03F00303D9B9A7
:1025300043F008039908013B11740D2B0BD8DFE819
:1025400003F00D071C070A160D0D160A071C070DD0
:102550005369013B53615DF8044B704753695DF863
:10256000044B01335361704743F00403E0E75369C0
:102570005DF8044B023B5361704753695DF8044BAF
:10258000023353617047137C03F003030029D1D059
:1025900043F00403CEE700BFDC180020224BD3F841
:1025A0008420D2E90010D3680968006810B418428A
:1025B000946801EA04012ED0137C03F00303D9B917
:1025C00043F008039908013B11740D2B0BD8DFE889
:1025D00003F00D071C070A160D0D160A071C070D40
:1025E0005369013B53615DF8044B704753695DF8D3
:1025F000044B01335361704743F00403E0E7536930
:102600005DF8044B023B5361704753695DF8044B1E
:10261000023353617047137C03F003030029D1D0C8
:1026200043F00403CEE700BFDC180020224BD3F8B0
:102630008820D2E90010D3680968006810B41842F5
:10264000946801EA04012ED0137C03F00303D9B986
:1026500043F008039908013B11740D2B0BD8DFE8F8
:1026600003F00D071C070A160D0D160A071C070DAF
:102670005369013B53615DF8044B704753695DF842
:10268000044B01335361704743F00403E0E753699F
:102690005DF8044B023B5361704753695DF8044B8E
:1026A000023353617047137C03F003030029D1D038
:1026B00043F00403CEE700BFDC180020224BD3F820
:1026C0008C20D2E90010D3680968006810B4184261
:1026D000946801EA04012ED0137C03F00303D9B9F6
:1026E00043F008039908013B11740D2B0BD8DFE868
:1026F00003F00D071C070A160D0D160A071C070D1F
:102700005369013B53615DF8044B704753695DF8B1
:10271000044B01335361704743F00403E0E753690E
:102720005DF8044B023B5361704753695DF8044BFD
:10273000023353617047137C03F003030029D1D0A7
:1027400043F00403CEE700BFDC180020224BD3F88F
:102750009020D2E90010D3680968006810B41842CC
:10276000946801EA04012ED0137C03F00303D9B965
:1027700043F008039908013B11740D2B0BD8DFE8D7
:1027800003F00D071C070A160D0D160A071C070D8E
:102790005369013B53615DF8044B704753695DF821
:1027A000044B01335361704743F00403E0E753697E
:1027B0005DF8044B023B5361704753695DF8044B6D
:1027C000023353617047137C03F003030029D1D017
:1027D00043F00403CEE700BFDC180020224BD3F8FF
:1027E0009420D2E90010D3680968006810B4184238
:1027F000946801EA04012ED0137C03F00303D9B9D5
:1028000043F008039908013B11740D2B0BD8DFE846
:1028100003F00D071C070A160D0D160A071C070DFD
:102820005369013B53615DF8044B704753695DF890
:10283000044B01335361704743F00403E0E75369ED
:102840005DF8044B023B5361704753695DF8044BDC
:10285000023353617047137C03F003030029D1D086
:1028600043F00403CEE700BFDC180020224BD3F86E
:102870009820D2E90010D3680968006810B41842A3
:10288000946801EA04012ED0137C03F00303D9B944
:1028900043F008039908013B11740D2B0BD8DFE8B6
:1028A00003F00D071C070A160D0D160A071C070D6D
:1028B0005369013B53615DF8044B704753695DF800
:1028C000044B01335361704743F00403E0E753695D
:1028D0005DF8044B023B5361704753695DF8044B4C
:1028E000023353617047137C03F003030029D1D0F6
:1028F00043F00403CEE700BFDC180020224BD3F8DE
:102900009C20D2E90010D3680968006810B418420E
:10291000946801EA04012ED0137C03F00303D9B9B3
:1029200043F008039908013B11740D2B0BD8DFE825
:1029300003F00D071C070A160D0D160A071C070DDC
:102940005369013B53615DF8044B704753695DF86F
:10295000044B01335361704743F00403E0E75369CC
:102960005DF8044B023B5361704753695DF8044BBB
:10297000023353617047137C03F003030029D1D065
:1029800043F00403CEE700BFDC180020224BD3F84D
:10299000A020D2E90010D3680968006810B418427A
:1029A000946801EA04012ED0137C03F00303D9B923
:1029B00043F008039908013B11740D2B0BD8DFE895
:1029C00003F00D071C070A160D0D160A071C070D4C
:1029D0005369013B53615DF8044B704753695DF8DF
:1029E000044B01335361704743F00403E0E753693C
:1029F0005DF8044B023B5361704753695DF8044B2B
:102A0000023353617047137C03F003030029D1D0D4
:102A100043F00403CEE700BFDC180020224BD3F8BC
:102A2000A420D2E90010D3680968006810B41842E5
:102A3000946801EA04012ED0137C03F00303D9B992
:102A400043F008039908013B11740D2B0BD8DFE804
:102A500003F00D071C070A160D0D160A071C070DBB
:102A60005369013B53615DF8044B704753695DF84E
:102A7000044B01335361704743F00403E0E75369AB
:102A80005DF8044B023B5361704753695DF8044B9A
:102A9000023353617047137C03F003030029D1D044
:102AA00043F00403CEE700BFDC180020224BD3F82C
:102AB000A820D2E90010D3680968006810B4184251
:102AC000946801EA04012ED0137C03F00303D9B902
:102AD00043F008039908013B11740D2B0BD8DFE874
:102AE00003F00D071C070A160D0D160A071C070D2B
:102AF0005369013B53615DF8044B704753695DF8BE
:102B0000044B01335361704743F00403E0E753691A
:102B10005DF8044B023B5361704753695DF8044B09
:102B2000023353617047137C03F003030029D1D0B3
:102B300043F00403CEE700BFDC180020224BD3F89B
:102B4000AC20D2E90010D3680968006810B41842BC
:102B5000946801EA04012ED0137C03F00303D9B971
:102B600043F008039908013B11740D2B0BD8DFE8E3
:102B700003F00D071C070A160D0D160A071C070D9A
:102B80005369013B53615DF8044B704753695DF82D
:102B9000044B01335361704743F00403E0E753698A
:102BA0005DF8044B023B5361704753695DF8044B79
:102BB000023353617047137C03F003030029D1D023
:102BC00043F00403CEE700BFDC180020224BD3F80B
:102BD000B020D2E90010D3680968006810B4184228
:102BE000946801EA04012ED0137C03F00303D9B9E1
:102BF00043F008039908013B11740D2B0BD8DFE853
:102C000003F00D071C070A160D0D160A071C070D09
:102C10005369013B53615DF8044B704753695DF89C
:102C2000044B01335361704743F00403E0E75369F9
:102C30005DF8044B023B5361704753695DF8044BE8
:102C4000023353617047137C03F003030029D1D092
:102C500043F00403CEE700BFDC180020224BD3F87A
:102C6000B420D2E90010D3680968006810B4184293
:102C7000946801EA04012ED0137C03F00303D9B950
:102C800043F008039908013B11740D2B0BD8DFE8C2
:102C900003F00D071C070A160D0D160A071C070D79
:102CA0005369013B53615DF8044B704753695DF80C
:102CB000044B01335361704743F00403E0E7536969
:102CC0005DF8044B023B5361704753695DF8044B58
:102CD000023353617047137C03F003030029D1D002
:102CE00043F00403CEE700BFDC180020224BD3F8EA
:102CF000B820D2E90010D3680968006810B41842FF
:102D0000946801EA04012ED0137C03F00303D9B9BF
:102D100043F008039908013B11740D2B0BD8DFE831
:102D200003F00D071C070A160D0D160A071C070DE8
:102D30005369013B53615DF8044B704753695DF87B
:102D4000044B01335361704743F00403E0E75369D8
:102D50005DF8044B023B5361704753695DF8044BC7
:102D6000023353617047137C03F003030029D1D071
:102D700043F00403CEE700BFDC180020224BD3F859
:102D8000BC20D2E90010D3680968006810B418426A
:102D9000946801EA04012ED0137C03F00303D9B92F
:102DA00043F008039908013B11740D2B0BD8DFE8A1
:102DB00003F00D071C070A160D0D160A071C070D58
:102DC0005369013B53615DF8044B704753695DF8EB
:102DD000044B01335361704743F00403E0E7536948
:102DE0005DF8044B023B5361704753695DF8044B37
:102DF000023353617047137C03F003030029D1D0E1
:102E000043F00403CEE700BFDC180020214B1A6812
:102E1000D2E90010D3680968006810B418429468B9
:102E200001EA04012ED0137C03F00303D9B943F067
:102E300008039908013B11740D2B0BD8DFE803F050
:102E40000D071C070A160D0D160A071C070D5369FE
:102E5000013B53615DF8044B704753695DF8044BC7
:102E600001335361704743F00403E0E753695DF8B1
:102E7000044B023B5361704753695DF8044B0233C6
:102E800053617047137C03F003030029D1D043F052
:102E90000403CEE7DC180020214B5A68D2E9001069
:102EA000D3680968006810B41842946801EA040104
:102EB0002ED0137C03F00303D9B943F0080399081B
:102EC000013B11740D2B0BD8DFE803F00D071C0735
:102ED0000A160D0D160A071C070D5369013B5361B5
:102EE0005DF8044B704753695DF8044B013353613F
:102EF000704743F00403E0E753695DF8044B023B7D
:102F00005361704753695DF8044B02335361704756
:102F1000137C03F003030029D1D043F00403CEE770
:102F2000DC180020214B9A68D2E90010D3680968A8
:102F3000006810B41842946801EA04012ED0137C92
:102F400003F00303D9B943F008039908013B117456
:102F50000D2B0BD8DFE803F00D071C070A160D0D2B
:102F6000160A071C070D5369013B53615DF8044BBA
:102F7000704753695DF8044B01335361704743F068
:102F80000403E0E753695DF8044B023B536170476B
:102F900053695DF8044B023353617047137C03F0AF
:102FA00003030029D1D043F00403CEE7DC1800204E
:102FB000214BDA68D2E90010D3680968006810B4C0
:102FC0001842946801EA04012ED0137C03F0030335
:102FD000D9B943F008039908013B11740D2B0BD8A4
:102FE000DFE803F00D071C070A160D0D160A071C73
:102FF000070D5369013B53615DF8044B70475369FA
:103000005DF8044B01335361704743F00403E0E77C
:1030100053695DF8044B023B5361704753695DF897
:10302000044B023353617047137C03F00303002900
:10303000D1D043F00403CEE7DC180020214B1A69FD
:10304000D2E90010D3680968006810B41842946887
:1030500001EA04012ED0137C03F00303D9B943F035
:1030600008039908013B11740D2B0BD8DFE803F01E
:103070000D071C070A160D0D160A071C070D5369CC
:10308000013B53615DF8044B704753695DF8044B95
:1030900001335361704743F00403E0E753695DF87F
:1030A000044B023B5361704753695DF8044B023394
:1030B00053617047137C03F003030029D1D043F020
:1030C0000403CEE7DC180020214B5A69D2E9001036
:1030D000D3680968006810B41842946801EA0401D2
:1030E0002ED0137C03F00303D9B943F008039908E9
:1030F000013B11740D2B0BD8DFE803F00D071C0703
:103100000A160D0D160A071C070D5369013B536182
:103110005DF8044B704753695DF8044B013353610C
:10312000704743F00403E0E753695DF8044B023B4A
:103130005361704753695DF8044B02335361704724
:10314000137C03F003030029D1D043F00403CEE73E
:10315000DC180020214B9A69D2E90010D368096875
:10316000006810B41842946801EA04012ED0137C60
:1031700003F00303D9B943F008039908013B117424
:103180000D2B0BD8DFE803F00D071C070A160D0DF9
:10319000160A071C070D5369013B53615DF8044B88
:1031A000704753695DF8044B01335361704743F036
:1031B0000403E0E753695DF8044B023B5361704739
:1031C00053695DF8044B023353617047137C03F07D
:1031D00003030029D1D043F00403CEE7DC1800201C
:1031E000214BDA69D2E90010D3680968006810B48D
:1031F0001842946801EA04012ED0137C03F0030303
:10320000D9B943F008039908013B11740D2B0BD871
:10321000DFE803F00D071C070A160D0D160A071C40
:10322000070D5369013B53615DF8044B70475369C7
:103230005DF8044B01335361704743F00403E0E74A
:1032400053695DF8044B023B5361704753695DF865
:10325000044B023353617047137C03F003030029CE
:10326000D1D043F00403CEE7DC180020214B1A6ACA
:10327000D2E90010D3680968006810B41842946855
:1032800001EA04012ED0137C03F00303D9B943F003
:1032900008039908013B11740D2B0BD8DFE803F0EC
:1032A0000D071C070A160D0D160A071C070D53699A
:1032B000013B53615DF8044B704753695DF8044B63
:1032C00001335361704743F00403E0E753695DF84D
:1032D000044B023B5361704753695DF8044B023362
:1032E00053617047137C03F003030029D1D043F0EE
:1032F0000403CEE7DC180020214B5A6AD2E9001003
:10330000D3680968006810B41842946801EA04019F
:103310002ED0137C03F00303D9B943F008039908B6
:10332000013B11740D2B0BD8DFE803F00D071C07D0
:103330000A160D0D160A071C070D5369013B536150
:103340005DF8044B704753695DF8044B01335361DA
:10335000704743F00403E0E753695DF8044B023B18
:103360005361704753695DF8044B023353617047F2
:10337000137C03F003030029D1D043F00403CEE70C
:10338000DC180020214B9A6AD2E90010D368096842
:10339000006810B41842946801EA04012ED0137C2E
:1033A00003F00303D9B943F008039908013B1174F2
:1033B0000D2B0BD8DFE803F00D071C070A160D0DC7
:1033C000160A071C070D5369013B53615DF8044B56
:1033D000704753695DF8044B01335361704743F004
:1033E0000403E0E753695DF8044B023B5361704707
:1033F00053695DF8044B023353617047137C03F04B
:1034000003030029D1D043F00403CEE7DC180020E9
:10341000214BDA6AD2E90010D3680968006810B459
:103420001842946801EA04012ED0137C03F00303D0
:10343000D9B943F008039908013B11740D2B0BD83F
:10344000DFE803F00D071C070A160D0D160A071C0E
:10345000070D5369013B53615DF8044B7047536995
:103460005DF8044B01335361704743F00403E0E718
:1034700053695DF8044B023B5361704753695DF833
:10348000044B023353617047137C03F0030300299C
:10349000D1D043F00403CEE7DC180020214B1A6B97
:1034A000D2E90010D3680968006810B41842946823
:1034B00001EA04012ED0137C03F00303D9B943F0D1
:1034C00008039908013B11740D2B0BD8DFE803F0BA
:1034D0000D071C070A160D0D160A071C070D536968
:1034E000013B53615DF8044B704753695DF8044B31
:1034F00001335361704743F00403E0E753695DF81B
:10350000044B023B5361704753695DF8044B02332F
:1035100053617047137C03F003030029D1D043F0BB
:103520000403CEE7DC180020214B5A6BD2E90010CF
:10353000D3680968006810B41842946801EA04016D
:103540002ED0137C03F00303D9B943F00803990884
:10355000013B11740D2B0BD8DFE803F00D071C079E
:103560000A160D0D160A071C070D5369013B53611E
:103570005DF8044B704753695DF8044B01335361A8
:10358000704743F00403E0E753695DF8044B023BE6
:103590005361704753695DF8044B023353617047C0
:1035A000137C03F003030029D1D043F00403CEE7DA
:1035B000DC180020214B9A6BD2E90010D36809680F
:1035C000006810B41842946801EA04012ED0137CFC
:1035D00003F00303D9B943F008039908013B1174C0
:1035E0000D2B0BD8DFE803F00D071C070A160D0D95
:1035F000160A071C070D5369013B53615DF8044B24
:10360000704753695DF8044B01335361704743F0D1
:103610000403E0E753695DF8044B023B53617047D4
:1036200053695DF8044B023353617047137C03F018
:1036300003030029D1D043F00403CEE7DC180020B7
:10364000214BDA6BD2E90010D3680968006810B426
:103650001842946801EA04012ED0137C03F003039E
:10366000D9B943F008039908013B11740D2B0BD80D
:10367000DFE803F00D071C070A160D0D160A071CDC
:10368000070D5369013B53615DF8044B7047536963
:103690005DF8044B01335361704743F00403E0E7E6
:1036A00053695DF8044B023B5361704753695DF801
:1036B000044B023353617047137C03F0030300296A
:1036C000D1D043F00403CEE7DC180020214B1A6C64
:1036D000D2E90010D3680968006810B418429468F1
:1036E00001EA04012ED0137C03F00303D9B943F09F
:1036F00008039908013B11740D2B0BD8DFE803F088
:103700000D071C070A160D0D160A071C070D536935
:10371000013B53615DF8044B704753695DF8044BFE
:1037200001335361704743F00403E0E753695DF8E8
:10373000044B023B5361704753695DF8044B0233FD
:1037400053617047137C03F003030029D1D043F089
:103750000403CEE7DC180020214B5A6CD2E900109C
:10376000D3680968006810B41842946801EA04013B
:103770002ED0137C03F00303D9B943F00803990852
:10378000013B11740D2B0BD8DFE803F00D071C076C
:103790000A160D0D160A071C070D5369013B5361EC
:1037A0005DF8044B704753695DF8044B0133536176
:1037B000704743F00403E0E753695DF8044B023BB4
:1037C0005361704753695DF8044B0233536170478E
:1037D000137C03F003030029D1D043F00403CEE7A8
:1037E000DC180020214B9A6CD2E90010D3680968DC
:1037F000006810B41842946801EA04012ED0137CCA
:1038000003F00303D9B943F008039908013B11748D
:103810000D2B0BD8DFE803F00D071C070A160D0D62
:10382000160A071C070D5369013B53615DF8044BF1
:10383000704753695DF8044B01335361704743F09F
:103840000403E0E753695DF8044B023B53617047A2
:1038500053695DF8044B023353617047137C03F0E6
:1038600003030029D1D043F00403CEE7DC18002085
:10387000214BDA6CD2E90010D3680968006810B4F3
:103880001842946801EA04012ED0137C03F003036C
:10389000D9B943F008039908013B11740D2B0BD8DB
:1038A000DFE803F00D071C070A160D0D160A071CAA
:1038B000070D5369013B53615DF8044B7047536931
:1038C0005DF8044B01335361704743F00403E0E7B4
:1038D00053695DF8044B023B5361704753695DF8CF
:1038E000044B023353617047137C03F00303002938
:1038F000D1D043F00403CEE7DC180020214B1A6D31
:10390000D2E90010D3680968006810B418429468BE
:1039100001EA04012ED0137C03F00303D9B943F06C
:1039200008039908013B11740D2B0BD8DFE803F055
:103930000D071C070A160D0D160A071C070D536903
:10394000013B53615DF8044B704753695DF8044BCC
:1039500001335361704743F00403E0E753695DF8B6
:10396000044B023B5361704753695DF8044B0233CB
:1039700053617047137C03F003030029D1D043F057
:103980000403CEE7DC180020214B5A6DD2E9001069
:10399000D3680968006810B41842946801EA040109
:1039A0002ED0137C03F00303D9B943F00803990820
:1039B000013B11740D2B0BD8DFE803F00D071C073A
:1039C0000A160D0D160A071C070D5369013B5361BA
:1039D0005DF8044B704753695DF8044B0133536144
:1039E000704743F00403E0E753695DF8044B023B82
:1039F0005361704753695DF8044B0233536170475C
:103A0000137C03F003030029D1D043F00403CEE775
:103A1000DC180020214B9A6DD2E90010D3680968A8
:103A2000006810B41842946801EA04012ED0137C97
:103A300003F00303D9B943F008039908013B11745B
:103A40000D2B0BD8DFE803F00D071C070A160D0D30
:103A5000160A071C070D5369013B53615DF8044BBF
:103A6000704753695DF8044B01335361704743F06D
:103A70000403E0E753695DF8044B023B5361704770
:103A800053695DF8044B023353617047137C03F0B4
:103A900003030029D1D043F00403CEE7DC18002053
:103AA000214BDA6DD2E90010D3680968006810B4C0
:103AB0001842946801EA04012ED0137C03F003033A
:103AC000D9B943F008039908013B11740D2B0BD8A9
:103AD000DFE803F00D071C070A160D0D160A071C78
:103AE000070D5369013B53615DF8044B70475369FF
:103AF0005DF8044B01335361704743F00403E0E782
:103B000053695DF8044B023B5361704753695DF89C
:103B1000044B023353617047137C03F00303002905
:103B2000D1D043F00403CEE7DC180020214B1A6EFD
:103B3000D2E90010D3680968006810B4184294688C
:103B400001EA04012ED0137C03F00303D9B943F03A
:103B500008039908013B11740D2B0BD8DFE803F023
:103B60000D071C070A160D0D160A071C070D5369D1
:103B7000013B53615DF8044B704753695DF8044B9A
:103B800001335361704743F00403E0E753695DF884
:103B9000044B023B5361704753695DF8044B023399
:103BA00053617047137C03F003030029D1D043F025
:103BB0000403CEE7DC180020214B5A6ED2E9001036
:103BC000D3680968006810B41842946801EA0401D7
:103BD0002ED0137C03F00303D9B943F008039908EE
:103BE000013B11740D2B0BD8DFE803F00D071C0708
:103BF0000A160D0D160A071C070D5369013B536188
:103C00005DF8044B704753695DF8044B0133536111
:103C1000704743F00403E0E753695DF8044B023B4F
:103C20005361704753695DF8044B02335361704729
:103C3000137C03F003030029D1D043F00403CEE743
:103C4000DC180020214B9A6ED2E90010D368096875
:103C5000006810B41842946801EA04012ED0137C65
:103C600003F00303D9B943F008039908013B117429
:103C70000D2B0BD8DFE803F00D071C070A160D0DFE
:103C8000160A071C070D5369013B53615DF8044B8D
:103C9000704753695DF8044B01335361704743F03B
:103CA0000403E0E753695DF8044B023B536170473E
:103CB00053695DF8044B023353617047137C03F082
:103CC00003030029D1D043F00403CEE7DC18002021
:103CD000214BDA6ED2E90010D3680968006810B48D
:103CE0001842946801EA04012ED0137C03F0030308
:103CF000D9B943F008039908013B11740D2B0BD877
:103D0000DFE803F00D071C070A160D0D160A071C45
:103D1000070D5369013B53615DF8044B70475369CC
:103D20005DF8044B01335361704743F00403E0E74F
:103D300053695DF8044B023B5361704753695DF86A
:103D4000044B023353617047137C03F003030029D3
:103D5000D1D043F00403CEE7DC180020214B1A6FCA
:103D6000D2E90010D3680968006810B4184294685A
:103D700001EA04012ED0137C03F00303D9B943F008
:103D800008039908013B11740D2B0BD8DFE803F0F1
:103D90000D071C070A160D0D160A071C070D53699F
:103DA000013B53615DF8044B704753695DF8044B68
:103DB00001335361704743F00403E0E753695DF852
:103DC000044B023B5361704753695DF8044B023367
:103DD00053617047137C03F003030029D1D043F0F3
:103DE0000403CEE7DC180020214B5A6FD2E9001003
:103DF000D3680968006810B41842946801EA0401A5
:103E00002ED0137C03F00303D9B943F008039908BB
:103E1000013B11740D2B0BD8DFE803F00D071C07D5
:103E20000A160D0D160A071C070D5369013B536155
:103E30005DF8044B704753695DF8044B01335361DF
:103E4000704743F00403E0E753695DF8044B023B1D
:103E50005361704753695DF8044B023353617047F7
:103E6000137C03F003030029D1D043F00403CEE711
:103E7000DC180020214B9A6FD2E90010D368096842
:103E8000006810B41842946801EA04012ED0137C33
:103E900003F00303D9B943F008039908013B1174F7
:103EA0000D2B0BD8DFE803F00D071C070A160D0DCC
:103EB000160A071C070D5369013B53615DF8044B5B
:103EC000704753695DF8044B01335361704743F009
:103ED0000403E0E753695DF8044B023B536170470C
:103EE00053695DF8044B023353617047137C03F050
:103EF00003030029D1D043F00403CEE7DC180020EF
:103F0000214BDA6FD2E90010D3680968006810B459
:103F10001842946801EA04012ED0137C03F00303D5
:103F2000D9B943F008039908013B11740D2B0BD844
:103F3000DFE803F00D071C070A160D0D160A071C13
:103F4000070D5369013B53615DF8044B704753699A
:103F50005DF8044B01335361704743F00403E0E71D
:103F600053695DF8044B023B5361704753695DF838
:103F7000044B023353617047137C03F003030029A1
:103F8000D1D043F00403CEE7DC18002038B5044656
:103F90000D4601212DED028B0698B0EE408A22716C
:103FA0000F4AA060C0B22260E36001F059FD012118
:103FB000207B01F055FDB5EEC08AF1EE10FA04DD6C
:103FC000B0EE480A207B02F04FF8284602F03CF998
:103FD000207B002101F0E2FF2046BDEC028B38BDC2
:103FE000180400200B4610B5362800F29782DFE84F
:103FF00010F08C0282027902700267025E025502A2
:104000004C0243023A02310228021F02BF01B601EC
:10401000AD01A4019B0192018901800177016E012C
:1040200065015C0153014A01410138012F0126015C
:104030001D0113010901FF00F500EB00E100D700AD
:10404000CD00C300B900AF00A5009B009100870020
:104050007D00730069005F0055004B004100370090
:10406000C84C0422C8493620C4F8D83001F032FDCB
:10407000012010BDC34C0422C4493520C4F8D430FB
:1040800001F028FD012010BDBE4C0422C04934209F
:10409000C4F8D03001F01EFD012010BDB94C04223F
:1040A000BC493320C4F8CC3001F014FD012010BD10
:1040B000B44C0422B8493220C4F8C83001F00AFDDB
:1040C000012010BDAF4C0422B4493120C4F8C430E3
:1040D00001F000FD012010BDAA4C0422B04930209F
:1040E000C4F8C03001F0F6FC012010BDA54C04223C
:1040F000AC492F20C4F8BC3001F0ECFC012010BD0D
:10410000A04C0422A8492E20C4F8B83001F0E2FCEB
:10411000012010BD9B4C0422A4492D20C4F8B430CA
:1041200001F0D8FC012010BD964C0422A0492C209F
:10413000C4F8B03001F0CEFC012010BD914C042237
:104140009C492B20C4F8AC3001F0C4FC012010BD08
:104150008C4C042298492A20C4F8A83001F0BAFCFB
:10416000012010BD874C042294492920C4F8A430B2
:1041700001F0B0FC012010BD824C0422904928209F
:10418000C4F8A03001F0A6FC012010BD7D4C042233
:104190008C492720C4F89C3001F09CFC012010BD04
:1041A000784C042288492620C4F8983001F092FC0B
:1041B000012010BD734C042284492520C4F894309A
:1041C00001F088FC012010BD6E4C0422804924209F
:1041D000C4F8903001F07EFC012010BD694C04222F
:1041E0007C492320C4F88C3001F074FC012010BD00
:1041F000644C042278492220C4F8883001F06AFC1B
:10420000012010BD5F4C042274492120C4F8843081
:1042100001F060FC012010BD5A4C0422704920209E
:10422000C4F8803001F056FC012010BD554C04222A
:104230006C491F20E36701F04DFC012010BD514C7B
:10424000042269491E20A36701F044FC012010BD2F
:104250004C4C042265491D20636701F03BFC0120A2
:1042600010BD484C042262491C20236701F032FC37
:10427000012010BD434C04225E491B20E36601F07F
:1042800029FC012010BD3F4C04225B491A20A36683
:1042900001F020FC012010BD3A4C0422574919209E
:1042A000636601F017FC012010BD364C042254490E
:1042B0001820236601F00EFC012010BD314C0422B1
:1042C00050491720E36501F005FC012010BD2D4C7D
:1042D00004224D491620A36501F0FCFB012010BD0E
:1042E000284C042249491520636501F0F3FB0120A5
:1042F00010BD244C042246491420236501F0EAFB3A
:10430000012010BD1F4C042242491320E36401F038
:10431000E1FB012010BD1B4C04223F491220A36485
:1043200001F0D8FB012010BD164C04223B4911209E
:10433000636401F0CFFB012010BD124C0422384908
:104340001020236401F0C6FB012010BD0D4C042297
:1043500034490F20E36301F0BDFB012010BD094C7F
:10436000042231490E20A36301F0B4FB012010BDEB
:10437000044C04222D490D20636301F0ABFB0120A6
:1043800010BD00BFDC180020CD030000ED040000CC
:104390005D0400003D030000AD0200001D020000AE
:1043A0008D010000ED0D00005D0D0000CD0C000042
:1043B0003D0C0000AD0B00001D0B00008D0A00003D
:1043C000FD0900006D090000DD0800004D08000037
:1043D000BD0700002D0700009D0600000D0600002F
:1043E0007D050000711F0000E51E0000591E000041
:1043F000CD1D0000411D0000B51C0000291C00005F
:104400009D1B0000111B0000851A0000F919000017
:104410006D190000E118000055180000C9170000D0
:104420003D170000B1160000251600009915000088
:104430003B4C04223B490C20236301F04BFB012041
:1044400010BD374C042238490B20E36201F042FBD7
:10445000012010BD324C042234490A20A36201F02D
:1044600039FB012010BD2E4C042231490920636222
:1044700001F030FB012010BD294C04222D490820F9
:10448000236201F027FB012010BD254C04222A499C
:104490000720E36101F01EFB012010BD204C042227
:1044A00026490620A36101F015FB012010BD1C4C1C
:1044B000042223490520636101F00CFB012010BD9B
:1044C0000422174C1F491046236101F003FB012011
:1044D00010BD134C04221C490320E36001F0FAFADA
:1044E000012010BD0E4C042218490220A36001F0E7
:1044F000F1FA012010BD0446094804221449436022
:10450000012001F0E7FA204610BD054C04221149B4
:104510000020236001F0DEFA012010BD002010BD54
:10452000DC1800200D15000081140000F5130000B8
:1045300069130000DD12000051120000C5110000D7
:1045400039110000AD10000021100000950F00008F
:10455000090F00007D0E00002DE9F04182B00446F5
:104560000F4616469DF820C01D46BCF1000F01D035
:1045700017460E460221384601F072FA02213046F3
:1045800001F06EFA25493B012548DFF89CC051F83F
:10459000038001EB07132560D3F80CE001EB061351
:1045A000C4F80C80C4F814E0DA683301C958002359
:1045B000A26123621B4B45681B682161ACFB033C75
:1045C0004FF4FA634FEA9C4C03FB0CFC43685B1B03
:1045D0009C45FBD8D8F80030384609681EEA030F1E
:1045E00014BF012300230A4204F10C0118BF43F059
:1045F000020301912377FFF7F5FC0346019930464A
:1046000084F82430FFF7EEFC94F82420034620467B
:10461000134484F8243002B0BDE8F0812404002063
:10462000001000E05C0B002083DE1B432DE9F84303
:10463000314D40F2EE28314C314FDFF8E4902E68D6
:1046400002F082FF2378002B49D03B78DA0746D569
:104650002B68D9F800209B1A0E2B40D902F074FF6A
:104660002378002BFAD03B78DB07F7D52B68D9F8F5
:1046700000209B1A0E2BF1D93921224802F0E6FEC8
:10468000214800F0B1FD5521204802F0DFFE1E4810
:1046900000F0AAFD00211E4802F0D8FE1A4800F0E2
:1046A000A3FD2F211B4802F0D1FE174800F09CFD0E
:1046B0004421194802F0CAFE134800F095FD1D215F
:1046C000164802F0C3FE104800F08EFD002110488D
:1046D00002F0BCFE0C48BDE8F84300F085BD2B6835
:1046E00022789B1B2AB1B3F5FA6FB7D802F02CFFE2
:1046F000A6E74345FAD9B1E7801E0020AE1E002090
:10470000AD1E002084080020600B0020C00800209F
:10471000A403002018090020480900209009002067
:10472000901E002010B53821AB48AC4C2DED028B0B
:1047300088B002F08BFEAA4800F056FDA949A848AF
:1047400000F020FD236893F82420012A40F2F58030
:1047500072B6196A62B6A24800F03AFD0121A24879
:1047600002F074FEA1499E4800F00CFD636893F8C6
:104770002420012A40F21C8172B6196A62B6984858
:1047800000F026FD964800F02FFD9949944800F06E
:10479000F9FCA36893F82420012A40F2F68072B64F
:1047A000196A62B68E4800F013FD01218E4802F0AE
:1047B0004DFE90498A4800F0E5FCE36893F8242018
:1047C000012A40F2CE8072B6196A62B6844800F0BF
:1047D000FFFC834800F008FD0021874802F036FE08
:1047E0007F4800F001FD3621844802F02FFE844C02
:1047F0007B4800F0F9FC7B49794800F0C3FC78481D
:10480000D4E9002300F050FD0121774802F01EFE9C
:104810007649734800F0B6FC7148D4E9022300F0F1
:1048200043FD6F4800F0E0FC71496D4800F0AAFCC0
:104830006B48D4E9042300F037FD01216A4802F0F7
:1048400005FE6C49664800F09DFC6548D4E90623E6
:1048500000F02AFD624800F0C7FC0021664802F023
:10486000F5FD5F4800F0C0FC3621664802F0EEFD21
:104870005B4800F0B9FC644800F03CFC9FED631A13
:10488000F0EE401A6048F0EE410A8DED010A00F0AA
:10489000F9FBDDED011AB0EE407A5B48F0EE607A8C
:1048A000B0EE611AF0EE610A8DED027AB0EE610AA7
:1048B000CDED037A00F0E6FB9DED030AB0EE418AF0
:1048C0000221B7EEC00A464800F00AFD444800F055
:1048D0008BFCB7EEC88A02214148B0EE480B00F0CD
:1048E000FFFC3F4800F080FC1421494802F0AEFD77
:1048F0009DED020A02213A48B7EEC00A00F0F0FC32
:104900000421444802F0A2FD354800F06DFC152159
:10491000414802F09BFDB0EE480B0221304800F008
:10492000DFFC06213D4802F091FD2D4808B0BDECAA
:10493000028BBDE8104000F057BC72B6D3E90320EB
:1049400059691268006811409A69104200F0EC80C1
:104950001A7F02F0030209B142F0040242F0080299
:10496000E8E072B6D3E90324D3E90510126824689D
:104970001140044200F0AC801A7F02F0030209B13A
:1049800042F0040242F00802A8E072B6D3E9032024
:1049900059691268006811409A6910426CD01A7FF8
:1049A00002F0030209B142F0040242F0080269E099
:1049B00072B6D3E9032059691268006811409A69F8
:1049C00010422DD01A7F02F0030209B142F0040216
:1049D00042F008022AE000BFE4020020A40F0020F9
:1049E000600B0020081D0020C4030020141D0020BF
:1049F000201D00202C1D0020A403002020030020E7
:104A00008018002058030020F01C00200000000047
:104A100090030020A8030020B0030020C80300205A
:104A20001A7F02F0030209B142F004029108013A30
:104A300019770D2A3FF6A1AE01A151F822F000BF6F
:104A4000292C0000212C0000492C0000212C000002
:104A5000EB270000412C0000292C0000292C00002D
:104A6000412C0000EB270000212C0000492C000005
:104A7000212C0000292C00001A7F02F0030209B14A
:104A800042F004029108013A19770D2A3FF688AEE8
:104A900001A151F822F000BF192C0000112C0000D8
:104AA000392C0000112C000011280000312C0000CE
:104AB000192C0000192C0000312C000011280000D6
:104AC000112C0000392C0000112C0000192C0000C2
:104AD0001A7F02F0030209B142F004029108013A80
:104AE00019770D2A3FF670AE01A151F822F000BFF0
:104AF000092C0000012C0000692C0000012C000092
:104B000039280000612C0000092C0000092C00004D
:104B1000612C000039280000012C0000692C0000E5
:104B2000012C0000092C00001A7F02F0030209B1D9
:104B300042F004029108013A19770D2A3FF609AEB6
:104B400001A151F822F000BFF92B0000F12B000069
:104B5000592C0000F12B0000C3270000512C00004D
:104B6000F92B0000F92B0000512C0000C327000096
:104B7000F12B0000592C0000F12B0000F92B000054
:104B8000196A01391962E5E5196A01311962E1E52D
:104B9000196A0139196218E6196A0131196214E6B5
:104BA000196A01391962FCE5196A01311962F8E5DF
:104BB000196A01391962E1E5196A01311962DDE505
:104BC000196A02391962ECE5196A02311962E8E5DD
:104BD000196A02391962D1E5196A02311962CDE503
:104BE000196A02391962B5E5196A02311962B1E52B
:104BF000196A02391962E8E5196A02311962E4E5B5
:104C00002DE9F04F6F4A04236F4E4FF00009DFF893
:104C1000DCB1DFF8DC812DED028B85B09FED6B8A76
:104C200001926B4A039002926A4A136009216A4812
:104C300002F00CFC694B09EB4901584603EB81017A
:104C400000F0A0FA00F0B8FE054600F0B5FE019AAB
:104C5000044652F8043B019272B600221A6262B610
:104C60005F4FDFF890A100F0A7FE401BB84214D2BE
:104C700000F0A2FE001B404545D8336840F2FF31EA
:104C80001A791846002A3AD01A6856495368984744
:104C900000F092FE401BB842EAD356F8040B0368BA
:104CA0009B6898470021504802F0D0FB584600F01E
:104CB0009BFA019B53F8043C93F82420012A2AD93B
:104CC00072B61A6A62B607EE902A09F10109F8EE87
:104CD000E77AC7EE887A17EE900A02F06DFD029B24
:104CE000E3E8020102933B4B1B684B459EDC039BB0
:104CF000002B60D105B0BDEC028BBDE8F08F1B68C6
:104D00001B689847AFE700F057FE01210446504664
:104D100002F09CFBB1E772B6DA6811681A69106894
:104D20005A6911409A6910422AD01A7F02F0030290
:104D3000002935D142F008029108013A19770D2A6D
:104D4000BFD801A151F822F0092E0000012E000069
:104D50001F2E0000012E0000332D0000172E000032
:104D6000092E0000092E0000172E0000332D000030
:104D7000012E00001F2E0000012E0000092E000051
:104D80001A7F02F003020029D6D042F00402D3E7D2
:104D90001A6A013A1A6295E71A6A01321A6291E7B1
:104DA00042F00402C6E71A6A023A1A628AE71A6AED
:104DB00002321A6286E705B0BDEC028BBDE8F04F07
:104DC000FFF7B0BCA40F0020F01100201DC7314137
:104DD0008018002000120020D0030020081D0020B1
:104DE0008096980001FCFFFFA4030020600B0020C8
:104DF0003F420F00BC08002070B52E4C2368DB0733
:104E00004CD52D4D2D4E02F0B7FA48B302F0F8FA0A
:104E100004462846E4B2214600F0C0FB204602F0DA
:104E2000FFFA012000F074FD0D2CECD1314628462C
:104E300000F0C4FB03462249284693B900F0BEFBAC
:104E400001462048D9B902F001FB1F4800F0CCF917
:104E50001C49284600F050FB02F08EFA0028D5D1FC
:104E600070BD184900F048FB0221184802F0EEFA24
:104E7000154800F0B9F90020FFF7C2FEC3E7114959
:104E8000284600F039FB0221104802F0DFFA0E48F4
:104E900000F0AAF90120FFF7B3FEB4E7094906487C
:104EA00000F0D0FA01230A4A0A490348236002F0BD
:104EB00065FCA6E7A8180020B81900209407002078
:104EC000A0070020A4030020600B00209C07002006
:104ED000780B0020F134000070B5012484B041F259
:104EE000B0230722009406213A484FF0FF35FFF720
:104EF00033FB009441F2B0230B220A213648FFF71E
:104F00002BFB009441F2B023102211213348FFF70C
:104F100023FB009441F2B0230E220F213048FFF70B
:104F20001BFB05229FED2F0A03230A212E488DED3E
:104F3000030A1426CDE900252246FFF727F80422AC
:104F40009DED030A02230A212848CDE9002500220D
:104F5000FFF71CF815229DED030A17230A212448A8
:104F6000CDE900250022FFF711F816239DED030A75
:104F700022460A211F4C019500961F48FFF706F8AC
:104F8000B2EE081AF3EE020A64229FED1C2A0221F7
:104F9000DFED1B1A9FED1B0A1B4800F045F81B496B
:104FA000204600F04FFA1A4904F10C0000F04AFACA
:104FB000184904F1180000F045FA174904F12400DB
:104FC00000F040FA154A1649002004B0BDE87040D0
:104FD00002F0D4BB481D0020801D0020B81D002019
:104FE000F01D002000409C46381D0020701D002050
:104FF000A81D0020081D0020E01D0020CFF7D33E93
:105000004A0C023E9A99593FF01C0020940200205D
:10501000A8020020BC020020D0020020780B002053
:1050200029010000000000009FED136BB7EEE17A4C
:105030000170B5EEC01A80ED022A27EE067B06EE5F
:10504000902AF1EE10FAB7EEC77B80ED047A10D407
:10505000B4EE601AF1EE10FA30FE811AC1EE207A39
:10506000F8EEE66A67EEA67A27EE800A80ED010A7E
:1050700070479FED031AF1E7182D4454FB210940B6
:105080000000000070EE807A9FED194A30EE210A90
:1050900090ED026AF5EE003AD0ED044A77EE817A9F
:1050A00088B0B6EE007A30EE811A77EEA11A60EE83
:1050B000077A21EE071A61EEA31AB6EE005BB7EE8F
:1050C000C66A81EE847A26EE056BC7EE840A81EE0D
:1050D000040A27EE247AB7EEC77A87EE061B60EE45
:1050E000A40A20EE240AB7EEC11B08B0704700BF27
:1050F0000000704290ED010A704700BF084602F0C0
:105100008FB900BF012A70B508BF0A228AB091B3D7
:105110004FF0210E01E05FFA86FE0EF1FF36B1FB83
:10512000F2F502FB15145FFA84FC092C0CF137042C
:105130000CF1300C98BF5FFA8CF40EF1280C88BF8C
:10514000E4B29142EC4429460CF8244CE3D24BB132
:105150000EF1FF3E2D225FFA8EFE0EF128036B4406
:1051600003F8242C036801A9CEF122025B68714484
:1051700098470AB070BD30224FF0210E8DF82520DF
:10518000E5E700BF2DE9F0418C688AB0DCB100256D
:10519000884606462F462B46212201A9404600F0AC
:1051A00023FA202C2246336828BF202201A930464A
:1051B0005B68A41A154498470744002CEBD1384685
:1051C0000AB0BDE8F081274638460AB0BDE8F08154
:1051D000002903DB00230A22FFF794BF49422D2355
:1051E0000A22FFF78FBF00BF00B5036883B040F607
:1051F0000D2C022201A95B68ADF804C0984703B0EA
:105200005DF804FB2DE9F04393B09DF868709DF8BC
:105210006C90012F44D91C468046154652EA04037F
:1052200039D0412601E05FFA8CF6214628463A46FD
:10523000002302F0A9FA5FFA82FC06F14802BCF1F1
:10524000090F0CF137030CF1300C6A44DBB298BF44
:105250005FFA8CF3BD4206F1FF3C054674F1000491
:1052600002F8443C0C46DED2B9F1000F07D0013EF3
:105270002D22F6B206F148036B4403F8442CD8F80B
:10528000003001A9C6F1420240465B6831449847AC
:1052900013B0BDE8F083302341268DF84530E3E7B5
:1052A000002013B0BDE8F083B3F1000C10B582B05C
:1052B00007DB0A210024CDE90014FFF7A3FF02B0A9
:1052C00010BD52424FF00A014FF001046CEB4C0349
:1052D000CDE90014FFF796FF02B010BD00000000FA
:1052E000B4EE400B70B5F1EE10FA05462DED028BD1
:1052F00086B07CD6B0EEC07B9FED476BB4EE467BAC
:10530000F1EE10FA6BDC9FED467BB4EEC70BF1EECD
:1053100010FA5ADC9FED447BB4EEC70BF1EE10FAA5
:1053200053D4B5EEC00B0C46F1EE10FA5BD400235B
:10533000B6EE007B002C5ED04FF0000C9FED3C6B76
:105340000CF1010C27EE067B5FFA8CF2A242F7D338
:1053500030EE070B0A222846FCEEC07BB8EE678BC6
:1053600017EE901A30EE488BFFF7CCFE0F2C4FF063
:105370002E03B2EE046B064628BF0F248DF80830CA
:105380000DF1090302AA611E53FA81F128EE060B02
:10539000FCEEC07BCDED017A9DF8043007EE903A2B
:1053A0003033B8EEE78B02F8013F914230EE488B84
:1053B000ECD12B68013402A928465B68E2B2984719
:1053C000304606B0BDEC028B70BD2B6803221A4933
:1053D0005B6806B0BDEC028BBDE8704018470368FF
:1053E00003221649F4E7B1EE400B0123A0E703685E
:1053F00003221349ECE730EE070B0A222846FCEEA5
:10540000C07B17EE901A06B0BDEC028BBDE8704071
:10541000FFF778BEAFF30080FFFFFFFFFFFFEF7FD6
:10542000000000E0FFFFEF41000000E0FFFFEFC1E0
:105430009A9999999999B93FE4030020E0030020D3
:10544000DC030020F8B500260446C0E9006686604B
:1054500029B108460D4603F03BF9074608B9204636
:10546000F8BD013002F07AFB0028F8D0294606701A
:105470002060C4E9017703F0A9F82046F8BD00BF19
:1054800010B50446006802F071FB204610BD00BF55
:10549000F8B50446154632B9036803B11A70002303
:1054A0002046A360F8BD43680E469A421CD9511CA1
:1054B000006803F0F5F8074660B1A368C4E9000589
:1054C0000BB90370276831463846A56003F07EF8B3
:1054D0002046F8BD206810B102F048FB2760002389
:1054E0002046C4E90133F8BD07683146A560384657
:1054F00003F06CF8ECE700BF38B505460C4649B13F
:10550000084603F0E5F8214602462846FFF7C0FFAB
:10551000284638BD2846A96038BD00BF2DE9F843AC
:10552000044600680D4616468842A36809D8C2188A
:10553000914206D20F1A4FF0010936B92046BDE854
:10554000F8834FF00009002EF8D003EB06086268DC
:1055500090450CD908F1010103F0A2F80028EDD024
:10556000A368C4E9000813B903702068A368B9F1FF
:10557000000F08D12946184403F028F82046C4F843
:105580000880BDE8F8833246C119184400F02CFBAE
:105590002368002203F80820F0E700BF10B582B0AE
:1055A0000023044601228DF8041001A98DF805306E
:1055B000FFF7B4FF204602B010BD00BF826808B5F7
:1055C0000B463AB161B1006802F096FEB0FA80F085
:1055D000400908BD31B11878B0FA80F0400908BD23
:1055E0000368F8E7012008BDC2B170B5B1FA81F6D1
:1055F0000C46760919B185689D4201D80E7070BDC0
:10560000ED1A02F1FF3C016820466545194428BFA8
:1056100065462A4602F06AFA665570BD704700BFBB
:10562000A249A34B88422DE9F047A24C5E699A69D2
:10563000D4F80C801BD9A04B984240F20281C31AC7
:105640009E491B0AA1FB031340F22761DB0903EB10
:10565000830303EB830303F2E2438B4228BF0B4631
:10566000A3F54877964BA3FB0737FF0804E0954F57
:10567000B8428CBF0E2706278D4908F01F09D1F8C4
:105680008030B94543F0C003C1F880300CD228F017
:105690001F08A1F5F82148EA0708C1F80C800B683B
:1056A000002BFCDA08F01F0916F0007324D186499C
:1056B0000C698649A14300F0EA8082F480513446A7
:1056C0004FF4805514F0605F04D026F060561E43FE
:1056D000774B5E6111F4405F07D022F44052744969
:1056E0002A438A618B6C1A07FCD446F00076704A14
:1056F0005661936C9B06FCD4754CA04200F2CE80A0
:105700004FF0010C0146634603FB011203F1010E49
:105710000CF10105A24218D8BEF1080F4FF00103A9
:1057200040F08D80BCF1040F00F291800A18A24273
:1057300000F2A48005FB00F1AC4603F1010E03FB6F
:1057400001120CF10105A242E6D90CF1FF318C02E5
:1057500086EA81215F4810445F4A90427FD9DFF892
:10576000A4A16C225D48584DB0FBFEF0D5F800E0D6
:10577000B0FBFCF0DFF890C10EEA0C0CD44509D068
:1057800042F400524FF4805CC5F800C02A602A68D9
:10579000002AFCDA464A156905F007059D4203D048
:1057A0001361936CDD03FCD411F4E05F09D026F49F
:1057B000E05604F4E0543E4A26435661936C990740
:1057C000FCD44749474A014491423CD8464BC90959
:1057D000A3FB0131090B4B1E1B0286EA030212F4E4
:1057E000407F06D026F4407603F44073304A3343BA
:1057F00053612F4A536923F000735361936C9B06E6
:10580000FCD43A4B4F45A3FB00234FF0FF324FEA45
:105810009343B0FBF1F1B2FBF3F3354A1060354A24
:105820001160354A136008D228F01F08214A48EA5F
:105830000707D7601368002BFCDABDE8F0877346D2
:1058400062E7122718E74FF440730421C5E70CF113
:10585000FF31204807238C02104486EA8121274A21
:10586000DFF8A8A0A2FB0020020D2548362A38BF89
:10587000362202FB00F042EA0A0A74E74FEA8C245F
:10588000002386EA8C214FF0010EAC4662E71D46EC
:1058900086F0C05411464FF0C05313E700244FF078
:1058A000010C024631462346E64653E700A4781F22
:1058B00000C00F40000008400046C32323B24C0044
:1058C0001F85EB5100366E0100800D404030008096
:1058D000FFB19F26808D5B00FF7EF64D00643F4D3B
:1058E0007FD1F0087F17B42C9F10E50083DE1B43A7
:1058F0005C0B0020580B0020781E0020819F5E1654
:10590000001BB7006C2000807F30018000200080E9
:1059100000B970472DE9F84F01218146214C224DF5
:10592000224E54E8003F2A68306844E80013002BF8
:10593000F7D11F494B684FF47A7BDFF878A01B1A28
:1059400001270BFB02F8DAF80020A3FB02325A45CC
:1059500094BF9044D84454E8003F2A68306844E833
:105960000073002BF7D14B68DAF800C01B1A0BFB51
:1059700002F2A3FB0C3CBCF57A7F94BF624402F5B3
:105980007A72A2EB0802B2F57A7F06D3B9F1010967
:1059900008F57A78DFD1BDE8F88F01F0D5FD04492C
:1059A000D9E700BF841E0020801E00207C1E00203E
:1059B000001000E0781E002030B40F4B4FF0010CB7
:1059C0000E4D0F4C53E8002F2868216843E800C2B1
:1059D000002AF7D10B4B5B680B4A5B1A4FF47A71C4
:1059E000126801FB00F0A3FB023230BC8A4294BF74
:1059F00080184018704700BF841E0020801E0020C1
:105A00007C1E0020001000E0781E0020362816D8EA
:105A10000201104B03EB00109B5810B4C2685C6885
:105A2000144205D061B95DF8044BC3F88820704773
:105A3000836851B1084A5DF8044B1A60704770479B
:105A40005DF8044BC3F884207047044A5DF8044BAA
:105A50001A6070472404002038F00100383001003B
:105A6000362829D8164B0201012903EB00109A5859
:105A700010B45368C4680ED004290CD023EA040380
:105A800053608368A9B1022917D003290CBF0D4ABE
:105A90000D4A1A6007E0234301295360836808D048
:105AA00040F638021A60436815225DF8044B1A600C
:105AB000704738221A60F6E77047044A1A60F2E726
:105AC00024040020383001003800010038F00100C3
:105AD000704700BF362858D80001F0B4344C354D1B
:105AE0002358AB4256D049D8B3F1844F4BD0A5F5DB
:105AF0008045AB4240D1304D2044304E304CC4F84C
:105B0000B462D0E901C4C0684FF0E0264FF00057FE
:105B1000042AC6F810712FD85E6926EA00065E6175
:105B20004FF00506CCF80060266846F48036266003
:105B30005C6824EA00045C60224C54F8224090FA2D
:105B4000A0F2B2FA82F245F822106FEA00011DD0ED
:105B5000DD690F2A01EA0501D9611DDC5200032528
:105B6000D968944005FA02F221EA02022243DA607F
:105B700098615A6902435A61F0BC7047124DAB42BA
:105B8000FAD1124DB8E7124DB6E77047DA69024311
:105B9000DA61EDE70F4DAFE7103A032519695200BE
:105BA000944005FA02F221EA020222431A61DFE779
:105BB0002404002000800042341000202100000056
:105BC000001400208002002000C000423411002098
:105BD000B40F0020B410002008B5FEF727FDFFF732
:105BE0000BF901F0B1FCFAE7844641EA000313F037
:105BF00003036DD1403A41D351F8043B40F8043BD4
:105C000051F8043B40F8043B51F8043B40F8043B96
:105C100051F8043B40F8043B51F8043B40F8043B86
:105C200051F8043B40F8043B51F8043B40F8043B76
:105C300051F8043B40F8043B51F8043B40F8043B66
:105C400051F8043B40F8043B51F8043B40F8043B56
:105C500051F8043B40F8043B51F8043B40F8043B46
:105C600051F8043B40F8043B51F8043B40F8043B36
:105C700051F8043B40F8043B403ABDD2303211D3D6
:105C800051F8043B40F8043B51F8043B40F8043B16
:105C900051F8043B40F8043B51F8043B40F8043B06
:105CA000103AEDD20C3205D351F8043B40F8043BD6
:105CB000043AF9D2043208D0D2071CBF11F8013BD4
:105CC00000F8013B01D30B8803806046704700BF9A
:105CD000082A13D38B078DD010F003038AD0C3F1A9
:105CE0000403D21ADB071CBF11F8013B00F8013B8B
:105CF00080D331F8023B20F8023B7BE7043AD9D34A
:105D0000013A11F8013B00F8013BF9D20B7803701E
:105D10004B7843708B7883706046704701F1FF3C8D
:105D200070B56646002400E00134B0FBF2F502FBDA
:105D30001503092B03F1370E03F130035FFA8EFED2
:105D400098BF5FFA83FE9042284606F801EFEBD237
:105D5000631C0022C818CA547CB162461CF8015F5B
:105D600010F8016DA1EB0C0302328CF80060013BCE
:105D7000521A057023449A42EFDB084670BD00BFFB
:105D80004FF0010C0CFA01FC01EB410100EB411159
:105D900070B5B1F80EE01FFA8CF5254C1FFA8EFE97
:105DA00024782E010EFB033306F0F006E340B0F832
:105DB00088417345A4B228BF73463443012AA0F832
:105DC00088410DD0022A28D0C2B10CF00F02B0F8E1
:105DD00088C11FFA8CFC4CEA020CA0F888C170BD87
:105DE0009BB20CF00F022D02CB82B0F8803105F48B
:105DF00070659BB22B43A0F88031E8E7AEEB030E51
:105E00000CF00F021FFA8EFEA1F80AE0B0F8803104
:105E10009BB21343A0F88031D9E79BB20CF00F027C
:105E2000CB83B0F880319BB21E43A0F88061CEE7EF
:105E30001A12002001EB4103F6EE006A00EB431357
:105E4000B3F80EC0314B1FFA8CFC93ED007AB8EE1C
:105E5000477A70B5C7EE007A4FF0010E4E000EFA89
:105E600001FE1FFA8EF577EEA67AFCEEE77A17EEC2
:105E7000903AB3F5803F46D300224FF6FF745B089B
:105E80000132A34201D9062AF9D9120142F48062F3
:105E900092B2022B4FF6FF744FEA0515314438BF1A
:105EA00002230EF00F0EEDB2A34200EB411128BF0A
:105EB0002346B0F88841A4B22C43A0F88841CA8098
:105EC0005A1E92B2CA814A8992B203FB02F2B2FB15
:105ED000FCF292B24A81CA8A92B203FB02F2B2FB8E
:105EE000FCF292B2CA82CA8B92B202FB03F3B3FBFA
:105EF000FCF39BB2CB83B0F888319BB243EA0E032C
:105F0000A0F8883170BD4FF48062C2E7580B0020C2
:105F1000214BF6EE006A4FF6FE7C93ED007AB8EE68
:105F2000477AC7EE007A77EEA67AFCEEE77A17EEAC
:105F3000903A63452CD900225B080132634501D9B0
:105F4000062AF9D9083242F2260C4CEA422C1FFAF2
:105F50008CFC022B00EB41114FF6FE7038BF022380
:105F60000A8A834292B228BF0346C88880B2C0F131
:105F70000110104403FB02F2B2FBF0F29B1A92B242
:105F8000C3F101039BB2CB800A82A1F80CC0704719
:105F900043F2260CDDE700BF580B002036284BD813
:105FA000F8B52A4D044615F8202005EB8005012A96
:105FB0002DD0022A3FD16B78C3F3011003283ED0C5
:105FC000234A02EB803203F0030C224889B2634675
:105FD00002EB4C1C0678BCF806E05801BCF8103007
:105FE0001FFA8EFECEF1011E1EFA83F303F1FF3E6F
:105FF0000EFB01F1F1408E4523D95B1AC3F1010379
:106000009BB289B20244ACF8063011820DE06A7886
:10601000C2F30113032B10D00F4800EB83308BB277
:1060200002F00301AA78FFF7ABFE0C4BEA7803EB12
:1060300004135B681A60F8BD70470948EFE7094A26
:10604000C1E7991E4FF6FF73DBE700BFA8070020EA
:1060500000C01D401A12002000C03D402404002052
:1060600000803E4000801E40362808D8154B13F8AB
:10607000202003EB8003012A02D0022A0DD07047B2
:106080005978C1F30112032A13D00F4801F003011C
:1060900000EB82309A78FFF7CDBE5978C1F3011337
:1060A000032B0CD0094800EB833001F00301FFF70C
:1060B0002FBF074801F003019A78FFF7BBBE0548E0
:1060C000F3E700BFA807002000C03D4000C01D400E
:1060D00000803E4000801E4000230F2248F2B82C72
:1060E000194610B54FF470444FF4806EA0F88C41FF
:1060F0004FF46044A0F88E210A46A0F89031B0F821
:1061000088319BB243F0F003A0F8883101EB4103E2
:10611000013100EB431304299C80A3F806E05A8464
:106120001A865A805A81A3F80EC05A82DA825A839C
:10613000DA83EBD1B0F888319BB243F00F03A0F8BB
:106140008831B0F888319BB243F47063A0F888318D
:1061500010BD00BF374B384A996F384841F47F0172
:1061600070B5996741F20106D3F8801045F6C05525
:1061700043F226040A43C3F88020FFF7ADFF00F581
:106180008040FFF7A9FF00F58040FFF7A5FF00F56D
:106190008040FFF7A1FF0022A0F503104FF00F0E83
:1061A000114600EB42134FEA421C01329981042A46
:1061B0005981A3F80EE09E82DD8020F80C10198230
:1061C0009C81EED100221E484FF00F0E41F20106D5
:1061D000114645F6C05543F2260400EB42134FEA40
:1061E000421C01329981042A5981A3F80EE09E8253
:1061F000DD8020F80C1019829C81EED1002211481C
:106200000F2641F20105114645F6C05443F2260E11
:1062100000EB42134FEA421C01329981042A598152
:10622000DE819D82DC8020F80C101982A3F80CE03E
:10623000EED170BD00C00F40000003FC00C03D4027
:1062400000001E4000401E4010280346044A28BF9C
:1062500010231078012B38BF01231370704700BF43
:106260001A12002072B6EFF30583524CC4F8843042
:106270001EF0040F0CBFEFF30882EFF309824FF01A
:10628000E0234D4E4D4DD3F8280DD3F82C1DC4E915
:106290002201D3F8341DD3F8383DC4E9241393699F
:1062A000C4F89830D369C4F89C3000F0BDF884ED90
:1062B000280A01F0E9F90B214FF0FF32C4F8A400DD
:1062C0000B46C4F880103E49301D5A40202402F08D
:1062D0000103013C01FB03F383EA5202F7D1A84218
:1062E00002D073680646EFE7324BC3F8A820BFF32D
:1062F0004F8F4FF0E0233049324AC3F8701FC3F884
:10630000702FBFF34F8FBFF36F8F2F4A02252F4897
:10631000D36E2F4943F44053D3660560D3692D48AB
:1063200023F07F0343F04003D3610B6883423DD8E1
:10633000264D00214FF0E0234FF0FF322960012667
:10634000C5F808112449C5F80011C5F80861C3F85B
:106350008021C3F88421C3F88821C3F88C21C3F8B5
:10636000902101E000F052F9D5F80C31002BF9D062
:106370000134C5F80C614F2CF4D9184B0220184990
:106380004FF00042C1F840015A63D5F80C313BB9D7
:10639000144815490D4A0163D2F80C31002BFAD08C
:1063A0004FF0E023114AC3F80C2DFEE7FFF738F950
:1063B000BEE700BF00FF272080FF2720A8FF27207F
:1063C0002083B8EDA0FF272000C00F400040084008
:1063D0005C0B0020803DCD0B009F240000900D4001
:1063E00000002E4000800F40F100AD0B0400FA05C4
:1063F0000A490A6838B108B513180948834204D815
:1064000010460B6008BD1046704701F0A1FB0C233D
:106410004FF0FF320360104608BD00BF740B002030
:1064200000002820FFF71EBF124AD2F880305B0719
:10643000FBD5D2F880301048C3F30B230F4990ED01
:10644000007A07EE903A91ED006AB8EE477A0C4A6E
:10645000F8EEE77A0B4BD2ED006A77EEC77A93ED50
:10646000007AB8EE477A67EE867A87EEA60A37EEAC
:10647000400A704700810D40681E0020701E0020F9
:10648000741E00206C1E0020836BF0B41BB1536897
:1064900043F40043536072B6446B3CB31A4B226022
:1064A000D3F8B0410C421DD1184E776804E07468EF
:1064B000E41BB4F5166F0BD2D3F8404144F480448A
:1064C000C3F84041D3F8B851D3F840416404EED545
:1064D0000D4007D10C4CC0E90225D4F8B0310B4374
:1064E000C4F8B031426362B6F0BC7047064DC0E9F3
:1064F0000224D5F8B0310B43C5F8B03102634263D2
:1065000062B6F0BC704700BF00002E40001000E0F3
:1065100070B5056B9DB106462A46002403E012685B
:106520000134012A0CD0536813F08003F7D0326392
:106530002CB12846B36B2D689847013CF9D170BD4A
:10654000C6E90C33F4E700BF30B4D9B91F4C204B77
:106550000021204A01254FF0011099601D60C4E917
:10656000023180245C60C2F8BC01D2F8B0311A4814
:106570002B43C2F8B0310160D2F8B031002BFBD10F
:1065800030BC70470904154B104C012541F08001C7
:106590009860104A596000F580511D60D96000F57F
:1065A0000051A364196100F5405100F58040596124
:1065B00000219861E164D2F8B03143F48033C2F82D
:1065C000B031D2F8B031002BFBD1C0E70000002081
:1065D000C016002000002E40D41C0020E016002031
:1065E000084901220B7802FA00F023EA0000087043
:1065F00030B9054AD2F8483123F08003C2F8483157
:10660000704700BFA91E002000002E402DE9F04F6A
:10661000974C83B0D4F84471FB07C4F8447153D548
:10662000D4F8AC21002A4AD0924EDFF860A2DFF8FD
:106630007492DFF874B2DFF87482C4F8AC21D6E942
:106640000A20D4F8403143F40053C4F84031D4F860
:1066500040319D04F5D5D4F8403123F40053C4F8FB
:1066600040314FF00113C4F8B431D4F8B45115F0EF
:106670000115FAD193B28446CAF80050B3F5086FF9
:1066800000F0CF8100F2DB8040F202318B4200F05B
:10669000E78100F29A80822B00F0CB81B3F5817FF5
:1066A00040F08A8010F0780F83B200F003824FF040
:1066B0000113C4F8C031D4F8AC21002ABDD16C4A12
:1066C000D2F8BC31002B42D17E0616D5684BD3F8E8
:1066D000AC21C3F8AC21D3F8BC21C3F8BC21D3F85A
:1066E000B041002CFBD14FF0FF32C3F8B421D3F8F6
:1066F000843100F02DFD604B1C60FC0103D55F4B25
:106700001B6803B19847B80103D55D4B1B6803B103
:106710009847790708D5564BD3F8843113F40073A2
:1067200047D0584B01221A70514BD3F848311A0602
:106730000AD53B0608D5544A13782BB1013BDBB28E
:106740001370002B00F0728203B0BDE8F08F4F4948
:10675000C2F8BC310868034240F0D181464A14684F
:106760001C40B1D05FEA144810D0424E4FF00109EE
:1067700098FAA8F5B5FA85F506EBC51009FA05F5FE
:106780004030FFF7C5FE38EA0508F1D1A4B2002C6D
:106790009AD0384E4FF0010894FAA4F5B5FA85F571
:1067A00006EBC51008FA05F5FFF7B2FEAC43F3D1CE
:1067B0008AE7344A1370B7E7802B7FF478AF344808
:1067C00002210580FFF7C0FE75E7B3F5A06F00F06A
:1067D0000B81A3F5D063012B3FF669AF2D4B5D68AC
:1067E000002D3FF464AF1FFA8CFC4FEA124E04E018
:1067F0001D690C33002D3FF45AAF1A887245F7D14A
:106800005A886245F4D14FEA1E22032A00F0A5817E
:106810001A89000C824228BF0246BEF5007F40F074
:10682000A181184B1C4918781C4B0192002818BFF5
:1068300019461B48FFF7D8F9194D019AE1E142F2D8
:1068400021218B427CD033D942F221318B4200F09E
:1068500081804FF6C0018B427FF429AF10F47F4F47
:1068600083B27FF424AF43F46E4363F30F0CB5E7B8
:1068700000002E4000000020D81C0020941E0020A4
:10688000981E0020AF1E0020B01E0020D41C002047
:10689000301E0020B0090020BC1E0060201F0060D8
:1068A00000002020CC1C00205DCFC6B8C0012E40C7
:1068B000B3F5106F66D042F221018B427FF4F7AE40
:1068C000030C072B7FF4F3AEB24BB349F560D960EC
:1068D000B249B360C3F80890C1E9002001221A60F0
:1068E000AF4A5A60AF4A1A61D4F8B01141F00101C1
:1068F000C4F8B01102F5805102F5005259619A6155
:10690000D4F8B031002BFBD1A74AF3649360012384
:10691000B264136048F2800353604FF00113C4F86F
:10692000BC31D4F8B03143F48033C4F8B0314FF403
:106930008033CAF80030D4F8B031002BFBD1BAE66E
:1069400080B238B9994BC2F307421968984B196065
:10695000984B1A70944B00229A60F2640122B3643F
:106960001A6080225A604FF00113C4F8BC31D4F889
:10697000B03143F48033C4F8B031D4F8B031002BD7
:10698000FBD198E6C2F307428B4B1A708B4BC4F8CD
:10699000C8318B4BC4F8CC318A4BC4F8D03100F0ED
:1069A000D9FB80222946884801F014FC874B8022BD
:1069B000C6F8A0B0C6F8E0307B4BF5645A600122FF
:1069C000B3649D601A604FF00113C4F8BC31D4F871
:1069D000B03143F48033C4F8B031CAF80050D4F871
:1069E000B031002BFBD166E66F4B0121F5641960D5
:1069F00080219D60B36459604FF00113C4F8BC312D
:106A0000D4F8B03143F48033C4F8B031D4F8B031A5
:106A1000002BFBD1130C5B0643F08073C4F8543198
:106A200049E6654B01216A481B780370FFF78CFD2E
:106A300041E683B210F078007FF439AE03F07F02B4
:106A400058F82210624A1080180600F19E80CB0789
:106A500001D50123137002215D48FFF775FD2AE679
:106A600010F0780F83B27FF422AE03F07F0213F0B0
:106A7000800F58F8223014BF43F4803343F00103F1
:106A800048F822300022484BF2649A600122B36435
:106A90001A6080225A604FF00113C4F8BC31D4F858
:106AA000B03143F48033C4F8B031D4F8B031002BA6
:106AB000FBD100E603F07F0213F0800F58F822307C
:106AC00014BF23F4803323F0010348F8223000225E
:106AD000354BF2649A600122B3641A6080225A60D6
:106AE0004FF00113C4F8BC31D4F8B03143F4803313
:106AF000C4F8B031D4F8B031002BFBD1DBE5002075
:106B0000086026490C88486842F221018C427FF4D3
:106B100025AE80B200287FF421AE2E492E4C03C949
:106B2000A18086284FEA11412060A1717FF416AE42
:106B300072B62A48017841F008010170D2F8481174
:106B40000D0605D480200143C2F84401C2F8481163
:106B500062B6234A5021117000E6000C2A78824266
:106B600028BF0246BEF5E06F44D11E4B1E4D18787B
:106B70001E491F4B0192002818BF19462846FFF7EF
:106B800033F807236B70019A3BE0C9033FF561AF0F
:106B900061E700BFE0160020CC2C0020A0180020E8
:106BA00080000700CC3C0020C0160020801E002082
:106BB000901E0020AD1E0020AE1E00200200CC0062
:106BC000C80002000200C800800000201993D5749C
:106BD000301E0020CC1C0020881E0020A91E002092
:106BE000B01E0020AF1E002000002020201F0060EB
:106BF000BC1E00602946104D01922846FEF7F4FFA6
:106C0000019A25F01F031544BFF34F8F4FF0E02189
:106C1000C1F8703F20339D42FAD8BFF34F8FBFF3C6
:106C20006F8F05481146FFF78FFC44E50320FFF7FF
:106C3000D7FC02F059F900BF000020202DE9F047F1
