:0200000460009A
:100000004643464200000156000000000103030081
:1000100000000000000000000000000000000000E0
:1000200000000000000000000000000000000000D0
:1000300000000000000000000000000000000000C0
:1000400000000000010408000000000000000000A3
:100050000000800000000000000000000000000020
:100060000000000000000000000000000000000090
:100070000000000000000000000000000000000080
:10008000EB04180A063204260000000000000000FD
:10009000050404240000000000000000000000002F
:1000A0000000000000000000000000000000000050
:1000B0000604000000000000000000000000000036
:1000C0000000000000000000000000000000000030
:1000D00020041808000000000000000000000000DC
:1000E0000000000000000000000000000000000010
:1000F0000000000000000000000000000000000000
:10010000D8041808000000000000000000000000F3
:100110000204180804200000000000000000000095
:1001200000000000000000000000000000000000CF
:10013000600400000000000000000000000000005B
:1001400000000000000000000000000000000000AF
:10015000000000000000000000000000000000009F
:10016000000000000000000000000000000000008F
:10017000000000000000000000000000000000007F
:10018000000000000000000000000000000000006F
:10019000000000000000000000000000000000005F
:1001A000000000000000000000000000000000004F
:1001B000000000000000000000000000000000003F
:1001C000000100000010000001000000000000001D
:1001D000000001000000000000000000000000001E
:1001E000000000000000000000000000000000000F
:1001F00000000000000000000000000000000000FF
:10020000FFFFFFFFFFFFFFFFFFFFFFFFFFFFFFFFFE
:10021000FFFFFFFFFFFFFFFFFFFFFFFFFFFFFFFFEE
:10100000D10020434D1600600000000000000000E9
:10101000201000600010006000440260000000002A
:10102000000000600050020000000000FFFFFFFF12
:10103000FFFFFFFFFFFFFFFFFFFFFFFFFFFFFFFFC0
:10104000FFFFFFFFFFFFFFFFFFFFFFFFFFFFFFFFB0
:10105000FFFFFFFFFFFFFFFFFFFFFFFFFFFFFFFFA0
:10106000FFFFFFFFFFFFFFFFFFFFFFFFFFFFFFFF90
:10140000814205D051F8043B40F8043B8242F9D8B0
:10141000704700BF044A05494FF0000342F8043BFF
:101420009142FBD8704700BFC03A002020970020AF
:101430002DE98848BFF34F8F00BF00BF00BF00BF3A
:1014400000F0D6F9684B0822C3F8542100BF00BF52
:1014500000BF00BF00BF00BF00BF00BF00BF00BF94
:1014600000BF00BF00BF00BF00BF00BF5F4A6049B0
:101470006048FFF7C5FF604A60496148FFF7C0FF59
:10148000604CFFF7C7FF4FF470004FF0E0210023DE
:101490005D4AC1F8880D44F823200133B02BFAD1FE
:1014A0005A4B80215A4A03F8011B9342FBD14FF05B
:1014B000E0254D4E4FF08039DFF884B1DFF884A18C
:1014C0004FF0FF31C5F8084D0027C6F80491C6F863
:1014D00000B1C6F8F490C6F8F0A0D5F8243DDFF8C6
:1014E000688143F4E0234B4AC5F8243DD8F81C300A
:1014F00023F07F0343F04003C8F81C30D8F82430B1
:1015000023F07F0343F04003C8F824309166D1668E
:101510001167516700F074F93F4B4049A363404B9A
:10152000E36363236B610323AF612B613D4BC5F81C
:10153000203DD5F8FC3D43F08073C5F8FC3D3A4BA7
:101540001A6842F001021A605B680B6000F0A2FBAF
:10155000C6F804913548C6F800B1C6F8F490C6F84C
:10156000F0A000F041FDD8F86C10314B314A41F445
:101570004051C8F86C101F60C3F80871C3F81871A7
:10158000C3F82871C3F83871936BDB0708D442F6AF
:101590001563294951651365936B43F00103936308
:1015A000244A264C936843F00113936000F0B0F98D
:1015B00000F0D4FC00F010FD00F09AFB00F01AF9E6
:1015C0002368132BFCD900F02BFC2368B3F5967F1E
:1015D000FBD300F013F900F00FF900F0F1FC00F07C
:1015E000FFFC30BFFDE700BF00800D40A8E3010015
:1015F0000C22006000000000C03A0020B805026024
:101600000000002000380020B551000000E400E098
:10161000A0E400E000C00A40E5650000E09500207D
:10162000E965000000002020001000E00046C32310
:101630000040084000400D400000C056E4950020E6
:101640001B1018200C0D111300C00F40054B4FF458
:101650002A01054A05485A641864054A9963954663
:10166000FFF7E6FE00C00A40FFAAAAAA0700200072
:101670000000062043690A4A03EB011010B4037A04
:10168000084C02EB0313D3E901321460C2681A60FC
:1016900003690BB142691A605DF8044B704700BFE3
:1016A000A40D002061F801004369027E03EB0212E1
:1016B00092F808C08C451CD01A7AFF2A19D09142A2
:1016C00010B5044616D01A7EFF2A06D00121D3E9B0
:1016D000002312681A4201D1217610BD064B052263
:1016E000204603EB0C135B681A60FFF7C3FF2176FB
:1016F000F3E770470021EAE7A40D002043690A4A96
:1017000003EB011010B490F82830084C02EB0313DF
:10171000D3E901321460C26A1A60036B0BB1426BE9
:101720001A605DF8044B7047A40D002061F80100B9
:101730004369427E03EB021292F828C08C451ED00A
:1017400093F82820FF2A1AD0914210B5044617D0EA
:1017500093F83820FF2A06D00121D3E9002312682C
:101760001A4201D1617610BD064B0522204603EBDB
:101770000C135B681A60FFF7C1FF6176F3E77047EF
:101780000021EAE7A40D0020164942698B6B23F47F
:101790007C0343F4802370B58B630446124DD2E979
:1017A00000130A681A4303690A60022200211A61C1
:1017B0000E4A19619A6401225A629D624FF43035D3
:1017C000DD624FF001159E6C1E6519629D651A6100
:1017D000017EFFF74FFF617E2046BDE87040FFF7B6
:1017E0008DBF00BF00C00F40B80B05053B3728195F
:1017F000704700BF704700BF704700BF00BF704711
:1018000010B44FF0E023002110243148C3F8941D98
:10181000C3F89C4D1124C3F8A00D2E48C3F89C4D6D
:101820001224C3F8A00D2C48C3F89C4D2B4AC3F8D2
:10183000A00D2B4C42F015022A48C3F89C4DC3F86A
:10184000A00D294C2948C3F89C4DC3F8A00D284C85
:10185000C3F89C2D2748284AC3F8A04DC3F89C0D17
:10186000C3F8A02D02F5A022244C0C322448C3F862
:101870009C4DC3F8A02D234AC3F89C0D224CC3F8FD
:10188000A02D02F14062C3F89C4D2048C3F8A02D62
:101890000C32C3F89C0DC3F8A02D00BF00BF00BFE1
:1018A00000BF00BF0122C3F8942DBFF34F8FBFF3D9
:1018B0006F8FC3F8501FBFF34F8FBFF36F8FD3F8F5
:1018C000142D5DF8044B42F44032C3F8142D7047D8
:1018D0003F00001025000807090010002097002095
:1018E0001300200021000207140000202500081327
:1018F000090000101600202027000B1317000040DD
:10190000180000602F000B07190000701A000080FB
:10191000F0B5B84B1822B84E0120B84F83B0C3F8C9
:101920005C62B749C3F86072B64DC3F86462A6F54D
:101930003046B54CC3F86862C3F86C52C3F87052B5
:10194000C3F87452C3F8785248F20C75DA661A6715
:101950005A679A67DA67C3F88020C3F88420C3F80F
:101960008820C1F82C03A94AC1F83003C1F8340318
:10197000C1F83803C1F83C03C1F85003A169A44B76
:101980000A40A448A4491343A44AA361D4F884306C
:1019900043F00C03C4F884304FF0FF34036843F085
:1019A0000203036003682B404FF400551A439C4B1D
:1019B000026044608A689B4C13409B4A43F000538A
:1019C0008360C36823F07803C360036A1340234332
:1019D0000362036A1340954A2343954C4362826233
:1019E000C2620022D1F8B83023F03F0343F0010374
:1019F000C0F8B830D1F8BC308E4923F03F0343F033
:101A00000103C0F8BC3040F205630261056604675B
:101A1000C0F88030456644670224C0F8843003680B
:101A200023F0020303608161834B8449C46143F85E
:101A3000042B8B42FBD1774A136843F001031360F8
:101A4000136813F00103FBD17A48022140F2F564D8
:101A5000906140F29940D16140F26641C2F8004283
:101A600042F20144C2F810127549C2F82002C2F8CD
:101A7000301240F235417348C2F83442C2F8401285
:101A8000714CC2F8500242F201207049C2F854125F
:101A90000121C2F86042C2F864025E48C2F8A03078
:101AA000C2F8A430C2F8B0104369DA07FCD50123AC
:101AB00000244FF4803257494361C0F8A040C0F879
:101AC000A420C0F8B0304B69DB07FCD5012300240B
:101AD0004FF400304F4A4B61C1F8A040C1F8A40058
:101AE000C1F8B0305369DF07FCD501230024584802
:101AF00048495361C2F8A040C2F8A400C2F8B0300F
:101B00004B69DE07FCD5D1F8003145F60D52212096
:101B10009BB24861934265D100244FF48022012397
:101B20003C48C1F8A040C1F8A420C1F8B0304369D6
:101B3000DD07FCD501234FF400040021354A436141
:101B4000C0F8A040C0F8A410C0F8B0305369DC075A
:101B5000FCD501234FF400044FF480302D4953612C
:101B6000C2F8A040C2F8A400C2F8B0304B69D80750
:101B7000FCD501234FF400044FF40030254A4B619B
:101B8000C1F8A040C1F8A400C1F8B0305369D9072A
:101B9000FCD501234FF400042D481E495361C2F8BF
:101BA000A040C2F8A400C2F8B0304B69DA07FCD5F7
:101BB000D1F8003145F60D5221209BB24861934285
:101BC00050D008254FF4000422490020224B234A1C
:101BD000009015705A1A01232148224400F008FA97
:101BE00003B0F0BD1E4B0022C3E90022C3E902226C
:101BF00003B0F0BD00801F40F9B00100F9100100F2
:101C000000841F40F970010000C00F40FFFCFF1F5F
:101C1000000300A000402A4000802A401200FFFF7D
:101C2000FF37F7004000008000FFF07CFF000F83CB
:101C300063000200F05AF05A00422A4000432A4052
:101C40009F041830EB06180A3806180A06320126D7
:101C5000040003000000007000000070D396002014
:101C60002C9300204FF400044FF4802201230848F5
:101C7000C1F8A040C1F8A420C1F8B0304369DB0727
:101C8000FCD5012310254FF0807443619CE700BF11
:101C900000402A40F0B4154A40274FF480314FF4F9
:101CA00080564FF400554FF4404443F2420013690C
:101CB00013F0020F0ED113F4005F0FD013F4805F06
:101CC0000ED0002BF3DA13F4803F0BD15B060BD55B
:101CD000F0BC7047946151619061E8E75561E6E7B7
:101CE0005661E4E79161E2E75761E0E700800D406B
:101CF0003F4A03203F49F3EE095AD2F880304FF0B3
:101D0000000C9FED3D6A23F001039FED3C5A30B477
:101D1000C2F88030C2F89000D1F8E010384DCBB254
:101D2000384C39482B6007EE903A0B0DC1F30B216C
:101D3000F8EEE77A06EE903A07EE101A334BB8EE5B
:101D4000C77A2160F8EEE66A314937EEC66A37EEA7
:101D5000C55A76EEC76A77EEE57A26EE266AC3EDB7
:101D6000006A25EE265AD2F8803067EEA64AC0ED0A
:101D7000007AC6EE275A274885EE276AC4EEA76A7E
:101D800075EE875AFCEEE55A36EE076A15EE904A74
:101D9000BCEEC66A43EA045376EE877AC2F8803016
:101DA00016EE103AD2F89041FCEEE77A01EA0341D0
:101DB000214317EE903AC2F89011C3F30B03D2F807
:101DC00090110B431449C2F89031D2F8803043F09F
:101DD0000203C2F88030114B80F840C0C1F8403196
:101DE0004FF0E023012230BCC3F80821704700BF48
:101DF00000810D4000441F400000AA420000B44290
:101E00005C95002058950020609500206495002086
:101E10000000FF0F00E400E000380020A5530000A0
:101E2000314B40F6617210B5C3F8202140F20444F2
:101E300000F0E2F82D4A2E49D2F880302D4843F0C8
:101E40000303C2F880302C4BC1F8604102681A428B
:101E500003D1D1F8A8319A071BD0254A4FF0004191
:101E6000244B5963D2F8403143F00203C2F84031A9
:101E7000D2F840319B07FBD44FF400304FF0E02103
:101E80001C4B4FF00042C1F88C0219209A6300F0FD
:101E90009FF8184A4FF08040154C002190630A20AB
:101EA000164B11604FF42072C4F8A801184600F0D8
:101EB0008BF84FF4800203464FF4810040F2431147
:101EC0001860C4F858311A640D4B0E4AC4F8481112
:101ED000C3F804224FF0E0224FF400310123C2F88E
:101EE0000C11C4F8403110BD00800D4000C00F40FF
:101EF00000002E4000900D40001C1E00000000203D
:101F0000003800208D55000008B50E4B1B6E9B0756
:101F100000D4FBBE72B60C4B00200C4AC3F8400143
:101F200003F160430A49A3F55F2311649D46BFF3A3
:101F30004F8F4FF400130748074ADB6902609B6824
:101F4000984700BF00441F4000002E4000C00A40D8
:101F50000300200000802020000012EB104BA02086
:101F6000104AD96E41F4403110B4D96640F237645A
:101F7000D96E41F44071D96654649064936C1B0629
:101F8000FCD4094A40F23761A02351649364936CF6
:101F900013F08003FBD1054A13705DF8044B7047C2
:101FA00000C00F4000400C4000800C40D196002043
:101FB000F8B500BFF8BC08BC9E46704700000000A2
:101FC0005FF800F0A98301005FF800F005830100CD
:101FD0005FF800F03D4800005FF800F0A5500000F9
:101FE0005FF800F0294B00005FF800F04D4500005D
:101FF0005FF800F0956600005FF800F0FD5C0000FF
:102000000501000091340000356700008D8100005B
:0420100005E70000E0
:1020140080C00F4000000003190000001000000001
:10202400E8841F4001000000FF000000FF000000E2
:102034000000000000000000180000001000000074
:10204400E4841F4001000000FF000000FF000000C6
:1020540000000000000000001F000000FD3B000025
:1020640070C00F40000C00001100000011000000BF
:10207400E0841F40020000002C0000001200000059
:10208400E0841F4001000000100000001100000067
:10209400DC841F40020000002D000000120000003C
:1020A400DC841F40010000001E000000F13B000022
:1020B40070C00F40C00000001200000013000000B8
:1020C400D0841F4001000000FF000000FF0000005A
:1020D40000000000000000001300000013000000D6
:1020E400CC841F4001000000FF000000FF0000003E
:1020F40000000000000000001C000000E53B0000A0
:10210400160355005300420020005300650072007E
:10211400690061006C00000018035400650065004C
:102124006E00730079006400750069006E006F0032
:102134000403090409026200030100C032080B0011
:102144000202020100090400000102020100052448
:1021540000100105240101010424020605240600DF
:10216400010705820310001009040100020A00009F
:10217400000705030240000007058402400000092F
:1021840004020002FF6AFF00070581024000010704
:10219400050102400001000009026200030100C0C1
:1021A40032080B00020202010009040000010202CD
:1021B4000100052400100105240101010424020684
:1021C4000524060001070582031000050904010027
:1021D400020A00000007050302000200070584024A
:1021E4000002000904020002FF6AC7000705810219
:1021F4000002010705010200020100000A060002B4
:08220400EF020140010000009F
:10220C0000000000000000000000000000000000C2
:10221C0000000000000000000000000000000000B2
:10222C00F8B54FF084439D695A6915400DD0254F80
:10223C0001269D6195FAA5F4B4FA84F457F824307C
:10224C0006FA04F49847A543F4D11F4B9D695A69CB
:10225C0015400DD01D4F01269D6195FAA5F4B4FAD9
:10226C0084F457F8243006FA04F49847A543F4D1C3
:10227C00174B9D695A6915400DD0164F01269D616B
:10228C0095FAA5F4B4FA84F457F8243006FA04F459
:10229C009847A543F4D1104B9D695A6915400DD050
:1022AC000E4F01269D6195FAA5F4B4FA84F457F803
:1022BC00243006FA04F49847A543F4D1BFF34F8FAA
:1022CC00F8BD00BF3C32002000400042BC32002070
:1022DC00008000423C33002000C00042BC33002090
:1022EC000548064B1B1AD90F01EBA301491002D06C
:1022FC00034B03B118477047C03A0020C03A002086
:10230C000000000008B5054B1BB105490548AFF3AB
:10231C000080BDE80840FFF7E3BF00BF00000000ED
:10232C00D09400200050026008B50D2004F02EFC63
:10233C0001460D20B1FA81F1490904F0FDFB024A76
:10234C00024B12681A6008BDE4950020EC94002042
:10235C000021007B04F0CABE38B50D4604460121AD
:10236C00007A04F0E9FB207B85EAE571A1EBE571CD
:10237C00BDE8384004F0BABE38B50D46044600211D
:10238C00007A04F0D9FB207B85EAE571A1EBE571BD
:10239C00BDE8384004F0AABE10B58EB0044600F279
:1023AC008F100DF11E0307AA0DF11A0103F08EFD1B
:1023BC00BDF91A3094ED5F4A04F5DC7E05EE103A57
:1023CC00BDF91C30B7EEC44A0DF1200C06EE103AE4
:1023DC00BDF91E30B8EEC55B07EE103AB8EEC66B11
:1023EC00B8EEC77B25EE045B26EE046B27EE047B70
:1023FC009FED0F3B25EE035B26EE036B27EE037B75
:10240C0084ED6E5B84ED706B84ED727BBEE80F0027
:10241C00ACE80F009EE803009DED0A1B9DED080B38
:10242C008CE803009DED0C2B0EB010BDAFF30080BB
:10243C00399D52A246DF913F10B58EB0044600F58F
:10244C00C0700DF11E0307AA0DF11A0103F01EFD59
:10245C00BDF91A3094ED5E3A04F5D07E05EE103AD3
:10246C00BDF91C30B7EEC33A94ED524A06EE103A61
:10247C00BDF91E30B8EEC55B0DF1200C07EE103A1D
:10248C00B8EEC66BB7EEC44AB8EEC77B25EE035B5D
:10249C0026EE036B27EE037B25EE045B26EE046B26
:1024AC0027EE047B84ED685B84ED6A6B84ED6C7BBA
:1024BC00BEE80F00ACE80F009EE803009DED0A1B80
:1024CC009DED080B8CE803009DED0C2B0EB010BDA0
:1024DC0010B5044682B00C481EF052F804F5C070DA
:1024EC00019003F095FC019803F0B6FC08B902B01A
:1024FC0010BD04F28F10019003F08AFC019802B019
:10250C00BDE8104003F0A8BCB8210020214B9A680C
:10251C00D2E90010D3680968006810B418429468B6
:10252C0001EA04012ED0137C03F00303D9B943F064
:10253C0008039908013B11740D2B0BD8DFE803F04D
:10254C000D071C070A160D0D160A071C070D5369FB
:10255C00013B53615DF8044B704753695DF8044BC4
:10256C0001335361704743F00403E0E753695DF8AE
:10257C00044B023B5361704753695DF8044B0233C3
:10258C0053617047137C03F003030029D1D043F04F
:10259C000403CEE7B88C0020214BDA68D2E9001096
:1025AC00D3680968006810B41842946801EA040101
:1025BC002ED0137C03F00303D9B943F00803990818
:1025CC00013B11740D2B0BD8DFE803F00D071C0732
:1025DC000A160D0D160A071C070D5369013B5361B2
:1025EC005DF8044B704753695DF8044B013353613C
:1025FC00704743F00403E0E753695DF8044B023B7A
:10260C005361704753695DF8044B02335361704753
:10261C00137C03F003030029D1D043F00403CEE76D
:10262C00B88C0020214B1A69D2E90010D3680968D4
:10263C00006810B41842946801EA04012ED0137C8F
:10264C0003F00303D9B943F008039908013B117453
:10265C000D2B0BD8DFE803F00D071C070A160D0D28
:10266C00160A071C070D5369013B53615DF8044BB7
:10267C00704753695DF8044B01335361704743F065
:10268C000403E0E753695DF8044B023B5361704768
:10269C0053695DF8044B023353617047137C03F0AC
:1026AC0003030029D1D043F00403CEE7B88C0020FB
:1026BC00214B5A69D2E90010D3680968006810B43C
:1026CC001842946801EA04012ED0137C03F0030332
:1026DC00D9B943F008039908013B11740D2B0BD8A1
:1026EC00DFE803F00D071C070A160D0D160A071C70
:1026FC00070D5369013B53615DF8044B70475369F7
:10270C005DF8044B01335361704743F00403E0E779
:10271C0053695DF8044B023B5361704753695DF894
:10272C00044B023353617047137C03F003030029FD
:10273C00D1D043F00403CEE7B88C0020224BD3F861
:10274C00D820D2E90010D3680968006810B4184288
:10275C00946801EA04012ED0137C03F00303D9B969
:10276C0043F008039908013B11740D2B0BD8DFE8DB
:10277C0003F00D071C070A160D0D160A071C070D92
:10278C005369013B53615DF8044B704753695DF825
:10279C00044B01335361704743F00403E0E7536982
:1027AC005DF8044B023B5361704753695DF8044B71
:1027BC00023353617047137C03F003030029D1D01B
:1027CC0043F00403CEE700BFB88C0020214B1A68FD
:1027DC00D2E90010D3680968006810B418429468F4
:1027EC0001EA04012ED0137C03F00303D9B943F0A2
:1027FC0008039908013B11740D2B0BD8DFE803F08B
:10280C000D071C070A160D0D160A071C070D536938
:10281C00013B53615DF8044B704753695DF8044B01
:10282C0001335361704743F00403E0E753695DF8EB
:10283C00044B023B5361704753695DF8044B023300
:10284C0053617047137C03F003030029D1D043F08C
:10285C000403CEE7B88C0020214B5A68D2E9001053
:10286C00D3680968006810B41842946801EA04013E
:10287C002ED0137C03F00303D9B943F00803990855
:10288C00013B11740D2B0BD8DFE803F00D071C076F
:10289C000A160D0D160A071C070D5369013B5361EF
:1028AC005DF8044B704753695DF8044B0133536179
:1028BC00704743F00403E0E753695DF8044B023BB7
:1028CC005361704753695DF8044B02335361704791
:1028DC00137C03F003030029D1D043F00403CEE7AB
:1028EC00B88C0020224BD3F89820D2E90010D36882
:1028FC000968006810B41842946801EA04012ED0EB
:10290C00137C03F00303D9B943F008039908013B86
:10291C0011740D2B0BD8DFE803F00D071C070A16FA
:10292C000D0D160A071C070D5369013B53615DF829
:10293C00044B704753695DF8044B01335361704786
:10294C0043F00403E0E753695DF8044B023B536129
:10295C00704753695DF8044B023353617047137C25
:10296C0003F003030029D1D043F00403CEE700BFEA
:10297C00B88C0020224BD3F89C20D2E90010D368ED
:10298C000968006810B41842946801EA04012ED05A
:10299C00137C03F00303D9B943F008039908013BF6
:1029AC0011740D2B0BD8DFE803F00D071C070A166A
:1029BC000D0D160A071C070D5369013B53615DF899
:1029CC00044B704753695DF8044B013353617047F6
:1029DC0043F00403E0E753695DF8044B023B536199
:1029EC00704753695DF8044B023353617047137C95
:1029FC0003F003030029D1D043F00403CEE700BF5A
:102A0C00B88C0020224BD3F8A020D2E90010D36858
:102A1C000968006810B41842946801EA04012ED0C9
:102A2C00137C03F00303D9B943F008039908013B65
:102A3C0011740D2B0BD8DFE803F00D071C070A16D9
:102A4C000D0D160A071C070D5369013B53615DF808
:102A5C00044B704753695DF8044B01335361704765
:102A6C0043F00403E0E753695DF8044B023B536108
:102A7C00704753695DF8044B023353617047137C04
:102A8C0003F003030029D1D043F00403CEE700BFC9
:102A9C00B88C0020224BD3F8A420D2E90010D368C4
:102AAC000968006810B41842946801EA04012ED039
:102ABC00137C03F00303D9B943F008039908013BD5
:102ACC0011740D2B0BD8DFE803F00D071C070A1649
:102ADC000D0D160A071C070D5369013B53615DF878
:102AEC00044B704753695DF8044B013353617047D5
:102AFC0043F00403E0E753695DF8044B023B536178
:102B0C00704753695DF8044B023353617047137C73
:102B1C0003F003030029D1D043F00403CEE700BF38
:102B2C00B88C0020224BD3F8A820D2E90010D3682F
:102B3C000968006810B41842946801EA04012ED0A8
:102B4C00137C03F00303D9B943F008039908013B44
:102B5C0011740D2B0BD8DFE803F00D071C070A16B8
:102B6C000D0D160A071C070D5369013B53615DF8E7
:102B7C00044B704753695DF8044B01335361704744
:102B8C0043F00403E0E753695DF8044B023B5361E7
:102B9C00704753695DF8044B023353617047137CE3
:102BAC0003F003030029D1D043F00403CEE700BFA8
:102BBC00B88C0020224BD3F8AC20D2E90010D3689B
:102BCC000968006810B41842946801EA04012ED018
:102BDC00137C03F00303D9B943F008039908013BB4
:102BEC0011740D2B0BD8DFE803F00D071C070A1628
:102BFC000D0D160A071C070D5369013B53615DF857
:102C0C00044B704753695DF8044B013353617047B3
:102C1C0043F00403E0E753695DF8044B023B536156
:102C2C00704753695DF8044B023353617047137C52
:102C3C0003F003030029D1D043F00403CEE700BF17
:102C4C00B88C0020224BD3F8B020D2E90010D36806
:102C5C000968006810B41842946801EA04012ED087
:102C6C00137C03F00303D9B943F008039908013B23
:102C7C0011740D2B0BD8DFE803F00D071C070A1697
:102C8C000D0D160A071C070D5369013B53615DF8C6
:102C9C00044B704753695DF8044B01335361704723
:102CAC0043F00403E0E753695DF8044B023B5361C6
:102CBC00704753695DF8044B023353617047137CC2
:102CCC0003F003030029D1D043F00403CEE700BF87
:102CDC00B88C0020224BD3F8B420D2E90010D36872
:102CEC000968006810B41842946801EA04012ED0F7
:102CFC00137C03F00303D9B943F008039908013B93
:102D0C0011740D2B0BD8DFE803F00D071C070A1606
:102D1C000D0D160A071C070D5369013B53615DF835
:102D2C00044B704753695DF8044B01335361704792
:102D3C0043F00403E0E753695DF8044B023B536135
:102D4C00704753695DF8044B023353617047137C31
:102D5C0003F003030029D1D043F00403CEE700BFF6
:102D6C00B88C0020224BD3F8B820D2E90010D368DD
:102D7C000968006810B41842946801EA04012ED066
:102D8C00137C03F00303D9B943F008039908013B02
:102D9C0011740D2B0BD8DFE803F00D071C070A1676
:102DAC000D0D160A071C070D5369013B53615DF8A5
:102DBC00044B704753695DF8044B01335361704702
:102DCC0043F00403E0E753695DF8044B023B5361A5
:102DDC00704753695DF8044B023353617047137CA1
:102DEC0003F003030029D1D043F00403CEE700BF66
:102DFC00B88C0020224BD3F8BC20D2E90010D36849
:102E0C000968006810B41842946801EA04012ED0D5
:102E1C00137C03F00303D9B943F008039908013B71
:102E2C0011740D2B0BD8DFE803F00D071C070A16E5
:102E3C000D0D160A071C070D5369013B53615DF814
:102E4C00044B704753695DF8044B01335361704771
:102E5C0043F00403E0E753695DF8044B023B536114
:102E6C00704753695DF8044B023353617047137C10
:102E7C0003F003030029D1D043F00403CEE700BFD5
:102E8C00B88C0020224BD3F8C020D2E90010D368B4
:102E9C000968006810B41842946801EA04012ED045
:102EAC00137C03F00303D9B943F008039908013BE1
:102EBC0011740D2B0BD8DFE803F00D071C070A1655
:102ECC000D0D160A071C070D5369013B53615DF884
:102EDC00044B704753695DF8044B013353617047E1
:102EEC0043F00403E0E753695DF8044B023B536184
:102EFC00704753695DF8044B023353617047137C80
:102F0C0003F003030029D1D043F00403CEE700BF44
:102F1C00B88C0020224BD3F8C420D2E90010D3681F
:102F2C000968006810B41842946801EA04012ED0B4
:102F3C00137C03F00303D9B943F008039908013B50
:102F4C0011740D2B0BD8DFE803F00D071C070A16C4
:102F5C000D0D160A071C070D5369013B53615DF8F3
:102F6C00044B704753695DF8044B01335361704750
:102F7C0043F00403E0E753695DF8044B023B5361F3
:102F8C00704753695DF8044B023353617047137CEF
:102F9C0003F003030029D1D043F00403CEE700BFB4
:102FAC00B88C0020224BD3F8C820D2E90010D3688B
:102FBC000968006810B41842946801EA04012ED024
:102FCC00137C03F00303D9B943F008039908013BC0
:102FDC0011740D2B0BD8DFE803F00D071C070A1634
:102FEC000D0D160A071C070D5369013B53615DF863
:102FFC00044B704753695DF8044B013353617047C0
:10300C0043F00403E0E753695DF8044B023B536162
:10301C00704753695DF8044B023353617047137C5E
:10302C0003F003030029D1D043F00403CEE700BF23
:10303C00B88C0020224BD3F8CC20D2E90010D368F6
:10304C000968006810B41842946801EA04012ED093
:10305C00137C03F00303D9B943F008039908013B2F
:10306C0011740D2B0BD8DFE803F00D071C070A16A3
:10307C000D0D160A071C070D5369013B53615DF8D2
:10308C00044B704753695DF8044B0133536170472F
:10309C0043F00403E0E753695DF8044B023B5361D2
:1030AC00704753695DF8044B023353617047137CCE
:1030BC0003F003030029D1D043F00403CEE700BF93
:1030CC00B88C0020224BD3F8D020D2E90010D36862
:1030DC000968006810B41842946801EA04012ED003
:1030EC00137C03F00303D9B943F008039908013B9F
:1030FC0011740D2B0BD8DFE803F00D071C070A1613
:10310C000D0D160A071C070D5369013B53615DF841
:10311C00044B704753695DF8044B0133536170479E
:10312C0043F00403E0E753695DF8044B023B536141
:10313C00704753695DF8044B023353617047137C3D
:10314C0003F003030029D1D043F00403CEE700BF02
:10315C00B88C0020224BD3F8D420D2E90010D368CD
:10316C000968006810B41842946801EA04012ED072
:10317C00137C03F00303D9B943F008039908013B0E
:10318C0011740D2B0BD8DFE803F00D071C070A1682
:10319C000D0D160A071C070D5369013B53615DF8B1
:1031AC00044B704753695DF8044B0133536170470E
:1031BC0043F00403E0E753695DF8044B023B5361B1
:1031CC00704753695DF8044B023353617047137CAD
:1031DC0003F003030029D1D043F00403CEE700BF72
:1031EC00B88C0020214B9A69D2E90010D368096889
:1031FC00006810B41842946801EA04012ED0137CC4
:10320C0003F00303D9B943F008039908013B117487
:10321C000D2B0BD8DFE803F00D071C070A160D0D5C
:10322C00160A071C070D5369013B53615DF8044BEB
:10323C00704753695DF8044B01335361704743F099
:10324C000403E0E753695DF8044B023B536170479C
:10325C0053695DF8044B023353617047137C03F0E0
:10326C0003030029D1D043F00403CEE7B88C00202F
:10327C00214BDA69D2E90010D3680968006810B4F0
:10328C001842946801EA04012ED0137C03F0030366
:10329C00D9B943F008039908013B11740D2B0BD8D5
:1032AC00DFE803F00D071C070A160D0D160A071CA4
:1032BC00070D5369013B53615DF8044B704753692B
:1032CC005DF8044B01335361704743F00403E0E7AE
:1032DC0053695DF8044B023B5361704753695DF8C9
:1032EC00044B023353617047137C03F00303002932
:1032FC00D1D043F00403CEE7B88C0020214B1A6ADE
:10330C00D2E90010D3680968006810B418429468B8
:10331C0001EA04012ED0137C03F00303D9B943F066
:10332C0008039908013B11740D2B0BD8DFE803F04F
:10333C000D071C070A160D0D160A071C070D5369FD
:10334C00013B53615DF8044B704753695DF8044BC6
:10335C0001335361704743F00403E0E753695DF8B0
:10336C00044B023B5361704753695DF8044B0233C5
:10337C0053617047137C03F003030029D1D043F051
:10338C000403CEE7B88C0020214B5A6AD2E9001016
:10339C00D3680968006810B41842946801EA040103
:1033AC002ED0137C03F00303D9B943F0080399081A
:1033BC00013B11740D2B0BD8DFE803F00D071C0734
:1033CC000A160D0D160A071C070D5369013B5361B4
:1033DC005DF8044B704753695DF8044B013353613E
:1033EC00704743F00403E0E753695DF8044B023B7C
:1033FC005361704753695DF8044B02335361704756
:10340C00137C03F003030029D1D043F00403CEE76F
:10341C00B88C0020214B9A6AD2E90010D368096855
:10342C00006810B41842946801EA04012ED0137C91
:10343C0003F00303D9B943F008039908013B117455
:10344C000D2B0BD8DFE803F00D071C070A160D0D2A
:10345C00160A071C070D5369013B53615DF8044BB9
:10346C00704753695DF8044B01335361704743F067
:10347C000403E0E753695DF8044B023B536170476A
:10348C0053695DF8044B023353617047137C03F0AE
:10349C0003030029D1D043F00403CEE7B88C0020FD
:1034AC00214BDA6AD2E90010D3680968006810B4BD
:1034BC001842946801EA04012ED0137C03F0030334
:1034CC00D9B943F008039908013B11740D2B0BD8A3
:1034DC00DFE803F00D071C070A160D0D160A071C72
:1034EC00070D5369013B53615DF8044B70475369F9
:1034FC005DF8044B01335361704743F00403E0E77C
:10350C0053695DF8044B023B5361704753695DF896
:10351C00044B023353617047137C03F003030029FF
:10352C00D1D043F00403CEE7B88C0020214B1A6BAA
:10353C00D2E90010D3680968006810B41842946886
:10354C0001EA04012ED0137C03F00303D9B943F034
:10355C0008039908013B11740D2B0BD8DFE803F01D
:10356C000D071C070A160D0D160A071C070D5369CB
:10357C00013B53615DF8044B704753695DF8044B94
:10358C0001335361704743F00403E0E753695DF87E
:10359C00044B023B5361704753695DF8044B023393
:1035AC0053617047137C03F003030029D1D043F01F
:1035BC000403CEE7B88C0020214B5A6BD2E90010E3
:1035CC00D3680968006810B41842946801EA0401D1
:1035DC002ED0137C03F00303D9B943F008039908E8
:1035EC00013B11740D2B0BD8DFE803F00D071C0702
:1035FC000A160D0D160A071C070D5369013B536182
:10360C005DF8044B704753695DF8044B013353610B
:10361C00704743F00403E0E753695DF8044B023B49
:10362C005361704753695DF8044B02335361704723
:10363C00137C03F003030029D1D043F00403CEE73D
:10364C00B88C0020214B9A6BD2E90010D368096822
:10365C00006810B41842946801EA04012ED0137C5F
:10366C0003F00303D9B943F008039908013B117423
:10367C000D2B0BD8DFE803F00D071C070A160D0DF8
:10368C00160A071C070D5369013B53615DF8044B87
:10369C00704753695DF8044B01335361704743F035
:1036AC000403E0E753695DF8044B023B5361704738
:1036BC0053695DF8044B023353617047137C03F07C
:1036CC0003030029D1D043F00403CEE7B88C0020CB
:1036DC00214BDA6BD2E90010D3680968006810B48A
:1036EC001842946801EA04012ED0137C03F0030302
:1036FC00D9B943F008039908013B11740D2B0BD871
:10370C00DFE803F00D071C070A160D0D160A071C3F
:10371C00070D5369013B53615DF8044B70475369C6
:10372C005DF8044B01335361704743F00403E0E749
:10373C0053695DF8044B023B5361704753695DF864
:10374C00044B023353617047137C03F003030029CD
:10375C00D1D043F00403CEE7B88C0020214B1A6C77
:10376C00D2E90010D3680968006810B41842946854
:10377C0001EA04012ED0137C03F00303D9B943F002
:10378C0008039908013B11740D2B0BD8DFE803F0EB
:10379C000D071C070A160D0D160A071C070D536999
:1037AC00013B53615DF8044B704753695DF8044B62
:1037BC0001335361704743F00403E0E753695DF84C
:1037CC00044B023B5361704753695DF8044B023361
:1037DC0053617047137C03F003030029D1D043F0ED
:1037EC000403CEE7B88C0020214B5A6CD2E90010B0
:1037FC00D3680968006810B41842946801EA04019F
:10380C002ED0137C03F00303D9B943F008039908B5
:10381C00013B11740D2B0BD8DFE803F00D071C07CF
:10382C000A160D0D160A071C070D5369013B53614F
:10383C005DF8044B704753695DF8044B01335361D9
:10384C00704743F00403E0E753695DF8044B023B17
:10385C005361704753695DF8044B023353617047F1
:10386C00137C03F003030029D1D043F00403CEE70B
:10387C00B88C0020214B9A6CD2E90010D3680968EF
:10388C00006810B41842946801EA04012ED0137C2D
:10389C0003F00303D9B943F008039908013B1174F1
:1038AC000D2B0BD8DFE803F00D071C070A160D0DC6
:1038BC00160A071C070D5369013B53615DF8044B55
:1038CC00704753695DF8044B01335361704743F003
:1038DC000403E0E753695DF8044B023B5361704706
:1038EC0053695DF8044B023353617047137C03F04A
:1038FC0003030029D1D043F00403CEE7B88C002099
:10390C00214BDA6CD2E90010D3680968006810B456
:10391C001842946801EA04012ED0137C03F00303CF
:10392C00D9B943F008039908013B11740D2B0BD83E
:10393C00DFE803F00D071C070A160D0D160A071C0D
:10394C00070D5369013B53615DF8044B7047536994
:10395C005DF8044B01335361704743F00403E0E717
:10396C0053695DF8044B023B5361704753695DF832
:10397C00044B023353617047137C03F0030300299B
:10398C00D1D043F00403CEE7B88C0020214B1A6D44
:10399C00D2E90010D3680968006810B41842946822
:1039AC0001EA04012ED0137C03F00303D9B943F0D0
:1039BC0008039908013B11740D2B0BD8DFE803F0B9
:1039CC000D071C070A160D0D160A071C070D536967
:1039DC00013B53615DF8044B704753695DF8044B30
:1039EC0001335361704743F00403E0E753695DF81A
:1039FC00044B023B5361704753695DF8044B02332F
:103A0C0053617047137C03F003030029D1D043F0BA
:103A1C000403CEE7B88C0020214B5A6DD2E900107C
:103A2C00D3680968006810B41842946801EA04016C
:103A3C002ED0137C03F00303D9B943F00803990883
:103A4C00013B11740D2B0BD8DFE803F00D071C079D
:103A5C000A160D0D160A071C070D5369013B53611D
:103A6C005DF8044B704753695DF8044B01335361A7
:103A7C00704743F00403E0E753695DF8044B023BE5
:103A8C005361704753695DF8044B023353617047BF
:103A9C00137C03F003030029D1D043F00403CEE7D9
:103AAC00B88C0020214B9A6DD2E90010D3680968BC
:103ABC00006810B41842946801EA04012ED0137CFB
:103ACC0003F00303D9B943F008039908013B1174BF
:103ADC000D2B0BD8DFE803F00D071C070A160D0D94
:103AEC00160A071C070D5369013B53615DF8044B23
:103AFC00704753695DF8044B01335361704743F0D1
:103B0C000403E0E753695DF8044B023B53617047D3
:103B1C0053695DF8044B023353617047137C03F017
:103B2C0003030029D1D043F00403CEE7B88C002066
:103B3C00214BDA6DD2E90010D3680968006810B423
:103B4C001842946801EA04012ED0137C03F003039D
:103B5C00D9B943F008039908013B11740D2B0BD80C
:103B6C00DFE803F00D071C070A160D0D160A071CDB
:103B7C00070D5369013B53615DF8044B7047536962
:103B8C005DF8044B01335361704743F00403E0E7E5
:103B9C0053695DF8044B023B5361704753695DF800
:103BAC00044B023353617047137C03F00303002969
:103BBC00D1D043F00403CEE7B88C0020214B1A6E11
:103BCC00D2E90010D3680968006810B418429468F0
:103BDC0001EA04012ED0137C03F00303D9B943F09E
:103BEC0008039908013B11740D2B0BD8DFE803F087
:103BFC000D071C070A160D0D160A071C070D536935
:103C0C00013B53615DF8044B704753695DF8044BFD
:103C1C0001335361704743F00403E0E753695DF8E7
:103C2C00044B023B5361704753695DF8044B0233FC
:103C3C0053617047137C03F003030029D1D043F088
:103C4C000403CEE7B88C0020214B5A6ED2E9001049
:103C5C00D3680968006810B41842946801EA04013A
:103C6C002ED0137C03F00303D9B943F00803990851
:103C7C00013B11740D2B0BD8DFE803F00D071C076B
:103C8C000A160D0D160A071C070D5369013B5361EB
:103C9C005DF8044B704753695DF8044B0133536175
:103CAC00704743F00403E0E753695DF8044B023BB3
:103CBC005361704753695DF8044B0233536170478D
:103CCC00137C03F003030029D1D043F00403CEE7A7
:103CDC00B88C0020214B9A6ED2E90010D368096889
:103CEC00006810B41842946801EA04012ED0137CC9
:103CFC0003F00303D9B943F008039908013B11748D
:103D0C000D2B0BD8DFE803F00D071C070A160D0D61
:103D1C00160A071C070D5369013B53615DF8044BF0
:103D2C00704753695DF8044B01335361704743F09E
:103D3C000403E0E753695DF8044B023B53617047A1
:103D4C0053695DF8044B023353617047137C03F0E5
:103D5C0003030029D1D043F00403CEE7B88C002034
:103D6C00214BDA6ED2E90010D3680968006810B4F0
:103D7C001842946801EA04012ED0137C03F003036B
:103D8C00D9B943F008039908013B11740D2B0BD8DA
:103D9C00DFE803F00D071C070A160D0D160A071CA9
:103DAC00070D5369013B53615DF8044B7047536930
:103DBC005DF8044B01335361704743F00403E0E7B3
:103DCC0053695DF8044B023B5361704753695DF8CE
:103DDC00044B023353617047137C03F00303002937
:103DEC00D1D043F00403CEE7B88C0020214B1A6FDE
:103DFC00D2E90010D3680968006810B418429468BE
:103E0C0001EA04012ED0137C03F00303D9B943F06B
:103E1C0008039908013B11740D2B0BD8DFE803F054
:103E2C000D071C070A160D0D160A071C070D536902
:103E3C00013B53615DF8044B704753695DF8044BCB
:103E4C0001335361704743F00403E0E753695DF8B5
:103E5C00044B023B5361704753695DF8044B0233CA
:103E6C0053617047137C03F003030029D1D043F056
:103E7C000403CEE7B88C0020214B5A6FD2E9001016
:103E8C00D3680968006810B41842946801EA040108
:103E9C002ED0137C03F00303D9B943F0080399081F
:103EAC00013B11740D2B0BD8DFE803F00D071C0739
:103EBC000A160D0D160A071C070D5369013B5361B9
:103ECC005DF8044B704753695DF8044B0133536143
:103EDC00704743F00403E0E753695DF8044B023B81
:103EEC005361704753695DF8044B0233536170475B
:103EFC00137C03F003030029D1D043F00403CEE775
:103F0C00B88C0020214B9A6FD2E90010D368096855
:103F1C00006810B41842946801EA04012ED0137C96
:103F2C0003F00303D9B943F008039908013B11745A
:103F3C000D2B0BD8DFE803F00D071C070A160D0D2F
:103F4C00160A071C070D5369013B53615DF8044BBE
:103F5C00704753695DF8044B01335361704743F06C
:103F6C000403E0E753695DF8044B023B536170476F
:103F7C0053695DF8044B023353617047137C03F0B3
:103F8C0003030029D1D043F00403CEE7B88C002002
:103F9C00214BDA6FD2E90010D3680968006810B4BD
:103FAC001842946801EA04012ED0137C03F0030339
:103FBC00D9B943F008039908013B11740D2B0BD8A8
:103FCC00DFE803F00D071C070A160D0D160A071C77
:103FDC00070D5369013B53615DF8044B70475369FE
:103FEC005DF8044B01335361704743F00403E0E781
:103FFC0053695DF8044B023B5361704753695DF89C
:10400C00044B023353617047137C03F00303002904
:10401C00D1D043F00403CEE7B88C0020224BD3F868
:10402C008020D2E90010D3680968006810B41842E7
:10403C00946801EA04012ED0137C03F00303D9B970
:10404C0043F008039908013B11740D2B0BD8DFE8E2
:10405C0003F00D071C070A160D0D160A071C070D99
:10406C005369013B53615DF8044B704753695DF82C
:10407C00044B01335361704743F00403E0E7536989
:10408C005DF8044B023B5361704753695DF8044B78
:10409C00023353617047137C03F003030029D1D022
:1040AC0043F00403CEE700BFB88C0020224BD3F8BA
:1040BC008420D2E90010D3680968006810B4184253
:1040CC00946801EA04012ED0137C03F00303D9B9E0
:1040DC0043F008039908013B11740D2B0BD8DFE852
:1040EC0003F00D071C070A160D0D160A071C070D09
:1040FC005369013B53615DF8044B704753695DF89C
:10410C00044B01335361704743F00403E0E75369F8
:10411C005DF8044B023B5361704753695DF8044BE7
:10412C00023353617047137C03F003030029D1D091
:10413C0043F00403CEE700BFB88C0020224BD3F829
:10414C008820D2E90010D3680968006810B41842BE
:10415C00946801EA04012ED0137C03F00303D9B94F
:10416C0043F008039908013B11740D2B0BD8DFE8C1
:10417C0003F00D071C070A160D0D160A071C070D78
:10418C005369013B53615DF8044B704753695DF80B
:10419C00044B01335361704743F00403E0E7536968
:1041AC005DF8044B023B5361704753695DF8044B57
:1041BC00023353617047137C03F003030029D1D001
:1041CC0043F00403CEE700BFB88C0020224BD3F899
:1041DC008C20D2E90010D3680968006810B418422A
:1041EC00946801EA04012ED0137C03F00303D9B9BF
:1041FC0043F008039908013B11740D2B0BD8DFE831
:10420C0003F00D071C070A160D0D160A071C070DE7
:10421C005369013B53615DF8044B704753695DF87A
:10422C00044B01335361704743F00403E0E75369D7
:10423C005DF8044B023B5361704753695DF8044BC6
:10424C00023353617047137C03F003030029D1D070
:10425C0043F00403CEE700BFB88C0020224BD3F808
:10426C009020D2E90010D3680968006810B4184295
:10427C00946801EA04012ED0137C03F00303D9B92E
:10428C0043F008039908013B11740D2B0BD8DFE8A0
:10429C0003F00D071C070A160D0D160A071C070D57
:1042AC005369013B53615DF8044B704753695DF8EA
:1042BC00044B01335361704743F00403E0E7536947
:1042CC005DF8044B023B5361704753695DF8044B36
:1042DC00023353617047137C03F003030029D1D0E0
:1042EC0043F00403CEE700BFB88C0020224BD3F878
:1042FC009420D2E90010D3680968006810B4184201
:10430C00946801EA04012ED0137C03F00303D9B99D
:10431C0043F008039908013B11740D2B0BD8DFE80F
:10432C0003F00D071C070A160D0D160A071C070DC6
:10433C005369013B53615DF8044B704753695DF859
:10434C00044B01335361704743F00403E0E75369B6
:10435C005DF8044B023B5361704753695DF8044BA5
:10436C00023353617047137C03F003030029D1D04F
:10437C0043F00403CEE700BFB88C002038B50446E8
:10438C000D4601212DED028B0698B0EE408A22716C
:10439C000F4AA060C0B22260E36002F009FC012168
:1043AC00207B02F005FCB5EEC08AF1EE10FA04DDBC
:1043BC00B0EE480A207B02F0FFFE284602F0ECFF2C
:1043CC00207B002102F092FE2046BDEC028B38BD12
:1043DC00040800200B4610B5362800F29782DFE85F
:1043EC0010F08C0282027902700267025E025502A2
:1043FC004C0243023A02310228021F02BF01B601ED
:10440C00AD01A4019B0192018901800177016E012C
:10441C0065015C0153014A01410138012F0126015C
:10442C001D0113010901FF00F500EB00E100D700AD
:10443C00CD00C300B900AF00A5009B009100870020
:10444C007D00730069005F0055004B004100370090
:10445C00C84C0422C8493620C4F8D83002F0E2FB1C
:10446C00012010BDC34C0422C4493520C4F8D430FB
:10447C0002F0D8FB012010BDBE4C0422C0493420F0
:10448C00C4F8D03002F0CEFB012010BDB94C042290
:10449C00BC493320C4F8CC3002F0C4FB012010BD61
:1044AC00B44C0422B8493220C4F8C83002F0BAFB2C
:1044BC00012010BDAF4C0422B4493120C4F8C430E3
:1044CC0002F0B0FB012010BDAA4C0422B0493020F0
:1044DC00C4F8C03002F0A6FB012010BDA54C04228C
:1044EC00AC492F20C4F8BC3002F09CFB012010BD5D
:1044FC00A04C0422A8492E20C4F8B83002F092FB3C
:10450C00012010BD9B4C0422A4492D20C4F8B430CA
:10451C0002F088FB012010BD964C0422A0492C20EF
:10452C00C4F8B03002F07EFB012010BD914C042287
:10453C009C492B20C4F8AC3002F074FB012010BD58
:10454C008C4C042298492A20C4F8A83002F06AFB4B
:10455C00012010BD874C042294492920C4F8A430B2
:10456C0002F060FB012010BD824C042290492820EF
:10457C00C4F8A03002F056FB012010BD7D4C042283
:10458C008C492720C4F89C3002F04CFB012010BD54
:10459C00784C042288492620C4F8983002F042FB5B
:1045AC00012010BD734C042284492520C4F894309A
:1045BC0002F038FB012010BD6E4C042280492420EF
:1045CC00C4F8903002F02EFB012010BD694C04227F
:1045DC007C492320C4F88C3002F024FB012010BD50
:1045EC00644C042278492220C4F8883002F01AFB6B
:1045FC00012010BD5F4C042274492120C4F8843082
:10460C0002F010FB012010BD5A4C042270492020EE
:10461C00C4F8803002F006FB012010BD554C04227A
:10462C006C491F20E36702F0FDFA012010BD514CCC
:10463C00042269491E20A36702F0F4FA012010BD80
:10464C004C4C042265491D20636702F0EBFA0120F3
:10465C0010BD484C042262491C20236702F0E2FA88
:10466C00012010BD434C04225E491B20E36602F07E
:10467C00D9FA012010BD3F4C04225B491A20A366D5
:10468C0002F0D0FA012010BD3A4C042257491920EF
:10469C00636602F0C7FA012010BD364C042254495F
:1046AC001820236602F0BEFA012010BD314C042202
:1046BC0050491720E36502F0B5FA012010BD2D4CCE
:1046CC0004224D491620A36502F0ACFA012010BD5E
:1046DC00284C042249491520636502F0A3FA0120F5
:1046EC0010BD244C042246491420236502F09AFA8A
:1046FC00012010BD1F4C042242491320E36402F038
:10470C0091FA012010BD1B4C04223F491220A364D6
:10471C0002F088FA012010BD164C04223B491120EE
:10472C00636402F07FFA012010BD124C0422384958
:10473C001020236402F076FA012010BD0D4C0422E7
:10474C0034490F20E36302F06DFA012010BD094CCF
:10475C00042231490E20A36302F064FA012010BD3B
:10476C00044C04222D490D20636302F05BFA0120F6
:10477C0010BD00BFB88C00203D050000550F000097
:10478C00C50E0000350E0000A50D0000150D000033
:10479C00850C0000F50B0000650B0000D50A00002D
:1047AC00450A0000B5090000250900009508000025
:1047BC000508000075070000E5060000ED2000006C
:1047CC005D200000CD1F00003D1F0000AD1E00004D
:1047DC001D1E0000911D0000051D0000791C00002D
:1047EC00ED1B0000611B0000D51A0000491A0000E7
:1047FC00BD19000031190000A5180000191800009F
:10480C008D1700000117000075160000E915000057
:10481C005D150000D114000045140000B913000010
:10482C003B4C04223B490C20236302F0FBF9012092
:10483C0010BD374C042238490B20E36202F0F2F928
:10484C00012010BD324C042234490A20A36202F02C
:10485C00E9F9012010BD2E4C042231490920636274
:10486C0002F0E0F9012010BD294C04222D4908204A
:10487C00236202F0D7F9012010BD254C04222A49ED
:10488C000720E36102F0CEF9012010BD204C042278
:10489C0026490620A36102F0C5F9012010BD1C4C6D
:1048AC00042223490520636102F0BCF9012010BDEC
:1048BC000422174C1F491046236102F0B3F9012062
:1048CC0010BD134C04221C490320E36002F0AAF92A
:1048DC00012010BD0E4C042218490220A36002F0E6
:1048EC00A1F9012010BD0446094804221449436073
:1048FC00012002F097F9204610BD054C0422114905
:10490C000020236002F08EF9012010BD002010BDA4
:10491C00B88C00202D130000A1120000151200000D
:10492C0089110000FD10000071100000E50F00005F
:10493C00B104000025040000990300000D030000E1
:10494C0059060000CD0500002DE9F04182B0044667
:10495C000F4616469DF820C01D46BCF1000F01D035
:10496C0017460E460221384602F022F90221304643
:10497C0002F01EF925493B012548DFF89CC051F88F
:10498C00038001EB07132560D3F80CE001EB061351
:10499C00C4F80C80C4F814E0DA683301C958002359
:1049AC00A26123621B4B45681B682161ACFB033C75
:1049BC004FF4FA634FEA9C4C03FB0CFC43685B1B03
:1049CC009C45FBD8D8F80030384609681EEA030F1E
:1049DC0014BF012300230A4204F10C0118BF43F059
:1049EC00020301912377FFF7F5FC0346019930464A
:1049FC0084F82430FFF7EEFC94F82420034620467C
:104A0C00134484F8243002B0BDE8F081A40D0020DA
:104A1C00001000E0A421002083DE1B432DE9F043AD
:104A2C00012183B00D20032402F0C2F801210D20D6
:104A3C0002F082F8962002F001F80D20002102F01D
:104A4C007BF8962001F0FAFF013CEFD1194D4FF4A1
:104A5C007A7001F0F3FF184C2E6840F2EE28174FD5
:104A6C00DFF8709003F030FE2378ABB13B78DB07B6
:104A7C0012D52B68D9F800209B1A0E2B0CD9104C90
:104A8C001048114B114A1249CDE90004012009F0DC
:104A9C0067FE03B0BDE8F0832B6822789B1B2AB11C
:104AAC00B3F5FA6FEBD803F00FFEDBE74345FAD909
:104ABC00E5E700BFE4950020DE960020DD9600209F
:104ACC00D1360000C5360000C1360000BD360000EE
:104ADC00A82100206C96002038B5134D134C2846A5
:104AEC0006F03AFD00210BF055F92146104807F06D
:104AFC00EBFB21460F4807F0E7FB21460E4807F079
:104B0C009DFE204607F0DEF90C4808F083FA0C48AD
:104B1C0006F00EF9284606F013FC0D20012102F0D8
:104B2C000BF8012038BD00BFAC950020B8940020D4
:104B3C00E89400208C930020FC950020448F0020EA
:104B4C00488200200000000070B5C34AC34D1268B3
:104B5C002B689B1AC72B2DED048B88B000F2A0811B
:104B6C00BF4CC04894ED0A1B94ED026B94ED007B96
:104B7C00BD4CB7EEC11BF7EEC60BB7EEC70B01F081
:104B8C00D9FB94F82430CDED050A012B8DED040AE8
:104B9C008DED061ACDED071A40F2CB8172B6266A5E
:104BAC0062B601F09FFF6368D4ED006AC31A6060BF
:104BBC00B8EEE66B07EE903AA368A660B8EE677B9A
:104BCC00F61AAA4C9FEDA04B94F8243087EE045BA8
:104BDC0007EE906A012BB8EEE77B87EE064B84EE6E
:104BEC00058BB7EEC88B40F2918172B6266A62B61D
:104BFC0001F078FF636894ED006AC31A6060B8EE48
:104C0C00C66B07EE903AA368A660B8EE677BF61AFF
:104C1C00974C9FED8D4B94F8243087EE045B07EE98
:104C2C00906A012BB8EEE77B87EE064B84EE057B92
:104C3C00F7EEC78B40F2568172B6266A62B601F067
:104C4C0051FF63686060C31A07EE903AA368A660D0
:104C5C00B8EE677BF61A9FED7C6B87EE065B94EDE6
:104C6C00006A07EE906A834C94F82430B8EEE77B28
:104C7C00B8EEC66B012B87EE064B84EE059BB7EEA8
:104C8C00C99B40F21B8172B6266A62B601F02AFFFC
:104C9C0063686060F0EE480AC01AA368A66007EE6D
:104CAC00900AF61A9DED040AB8EE677B72489FEDE8
:104CBC00666B87EE065B94ED006A07EE906A6F4EAA
:104CCC00B8EEE77BB8EEC66B87EE064B84EE057B41
:104CDC00F7EEC79B01F0A8FCFDEEC07B337917EE15
:104CEC00904A03B16442002C40F38280307A012157
:104CFC0001F022FF2146307B02F0F8F9F0EE680A51
:104D0C009DED050A5E4E5F4801F08EFCFDEEC07B0A
:104D1C00337917EE904A03B16442002C40F389803A
:104D2C00307A012101F008FF2146307B02F0DEF9D8
:104D3C00F0EE490A9DED060A534E544801F074FCFE
:104D4C00FDEEC07B337917EE904A03B16442002C20
:104D5C0064DD307A012101F0EFFE2146307B02F058
:104D6C00C5F9F0EE690A9DED070A494E494801F074
:104D7C005BFCFDEEC07B337917EE904A03B16442C5
:104D8C00002C40DD307A012101F0D6FE2146307B2B
:104D9C0002F0ACF9B0EE480A3248B0EE491AF0EE27
:104DAC00680AF0EE691A01F0C9FA3B4A2B68F0EE7A
:104DBC00411A1168B0EE601A1360F0EE400A5B1AEB
:104DCC008DED010A354807EE903A8DED021ACDEDC6
:104DDC00031AB8EE677B9FED1E5B87EE056BB7EE93
:104DEC00C60B08B0BDEC048BBDE8704001F078BB7D
:104DFC0000F0BC80307A002101F09EFE6142307BD5
:104E0C0002F074F97AE700F0A780307A002101F003
:104E1C0093FE6142307B02F069F9BBE700F0A180A0
:104E2C00307A002101F088FE6142307B02F05EF99D
:104E3C0097E700F0A080307A002101F07DFE6142FE
:104E4C00307B02F053F973E700000000389C8C4172
:104E5C000000000000408F40EC940020E4950020FE
:104E6C00588C0020A4930020E49300201C94002074
:104E7C00549400208C940020F0850020D4930020C2
:104E8C000C940020208600204494002050860020A2
:104E9C007C94002080860020F094002078890020EB
:104EAC0000220023A64C01210D20C4E90023C4E9F3
:104EBC000223C4E90A2301F03FFE52E672B62269CE
:104ECC00E3681B68116862691A40A369194200F013
:104EDC00DB80237F03F003030AB143F0040343F0A8
:104EEC000803D7E072B62269E3681B68116862692F
:104EFC001A40A369194200F09B80237F03F003033F
:104F0C000AB143F0040343F0080397E072B6E36878
:104F1C0062691B681A4023691968A36919425BD03E
:104F2C00237F03F003030AB143F0040343F00803A7
:104F3C0058E072B6D4E9033162691B6809681A40FB
:104F4C00A36919421CD0237F03F003030AB143F079
:104F5C00040343F0080319E02146307B02F0C6F845
:104F6C0018E72146307B02F0C1F8FAE62146307B87
:104F7C0002F0BCF8C2E62146307B02F0B7F8D7E667
:104F8C00237F03F003030AB143F004039A08013BA7
:104F9C00266A22770D2B3FF603AE01A252F823F0BE
:104FAC000B2F0000052F0000232F0000052F000001
:104FBC00A12900001D2F00000B2F00000B2F00005B
:104FCC001D2F0000A1290000052F0000232F000039
:104FDC00052F00000B2F0000237F03F003030AB101
:104FEC0043F004039A08013B266A22770D2B3FF607
:104FFC00FEAD01A252F823F0FF2E0000F92E0000A6
:10500C00172F0000F92E0000EF290000112F0000CF
:10501C00FF2E0000FF2E0000112F0000EF290000D2
:10502C00F92E0000172F0000F92E0000FF2E0000B3
:10503C00237F03F003030AB143F004039A08013BF6
:10504C00266A22770D2B3FF6F9AD01A252F823F018
:10505C00F32E0000ED2E00003B2F0000ED2E000083
:10506C003D2A0000352F0000F32E0000F32E000027
:10507C00352F00003D2A0000ED2E00003B2F0000D4
:10508C00ED2E0000F32E0000237F03F003030AB182
:10509C0043F004039A08013B266A22770D2B3FF656
:1050AC00F4AD01A252F823F0E72E0000E12E00002F
:1050BC002F2F0000E12E00008B2A0000292F00006A
:1050CC00E72E0000E72E0000292F00008B2A00009D
:1050DC00E12E00002F2F0000E12E0000E72E000033
:1050EC00013E2662D1E501362662CEE5013E2662FE
:1050FC00A4E501362662A1E5013E266277E501367C
:10510C00266274E5013E26624AE50136266247E5D1
:10511C00023E26626BE50236266268E5023E266296
:10512C003EE5023626623BE5023E2662ADE50236DE
:10513C002662AAE5023E266280E5023626627DE5FD
:10514C00588C0020000000002DE9F047ADF5856D6E
:10515C00994C9A49684601F055F94FF432726946F8
:10516C00974801F0E9FDBAABB4AA0DF2CE2104F2D6
:10517C008F1000F0ABFEBDF9CE3294ED5F0A01EE5C
:10518C00103ABDF9D032B7EEC00AB8EEC11B03EE2F
:10519C00103ABDF9E832B8EEC33B21EE001B07EE26
:1051AC00103AB8EEC77B23EE003B27EE007B9FED59
:1051BC007C2B94ED584B9FED7C0B21EE021B23EEC8
:1051CC00023B27EE027B31EE444B94ED5A5B94ED9F
:1051DC005C6BB4EEC04B33EE455B37EE466BF1EED9
:1051EC0010FA84ED6E1B84ED703B84ED224B84ED44
:1051FC00727B84ED245B84ED266B07DD9FED6C7B6D
:10520C00B4EEC74BF1EE10FA00F1C3809FED667B54
:10521C00B4EEC75BF1EE10FA07DD9FED657BB4EEE3
:10522C00C75BF1EE10FA00F1AF809FED5F7BB4EE3F
:10523C00C76BF1EE10FA0ADD9FED5D7BB4EEC76B28
:10524C00F1EE10FA03D500220023C4E9262394EDD5
:10525C00567ABAAB0DF2CE22B3A9B7EEC77A59483B
:10526C00594DDFF87C81DFF8589184ED287B84ED73
:10527C00307B84ED387B00F009FEBDF9CC3294ED27
:10528C005E3A0DF5347C05EE103ABDF9CE32B7EE30
:10529C00C33A94ED524A06EE103ABDF9E832B8EE34
:1052AC00C55BE24607EE103AB8EEC66BB7EEC44AE1
:1052BC000DF53A7EB8EEC77B25EE035B774626EEFE
:1052CC00036B27EE037B25EE045B26EE046B27EEC7
:1052DC00047B84ED685B84ED6A6B0FCD84ED6C7B95
:1052EC00ACE80F0095E80300A5F1C8068CE80300B4
:1052FC00BAE80F00AEE80F009CE803008EE803004C
:10530C000FCF94ED557A0FC6B7EEC77A4FF4A07253
:10531C009EE8030084ED407B86E80300A5F5D4717C
:10532C00BAA884ED487B84ED507B01F005FDBAA949
:10533C004FF4A072404601F0FFFC244A2448D2E905
:10534C00003100684FF47A72C0184FF0000341F13D
:10535C00000113F02FFF1F4B4146C9F8000003FB5F
:10536C0002F2C8F80000C9F80420C8F80420002292
:10537C00194807F003F80022494618480DF5856DC9
:10538C00BDE8F04706F0FABF00220023C4E924234D
:10539C004BE700220023C4E9222337E7AFF3008058
:1053AC00399D52A246DF913F7B14AE47E17A84BF10
:1053BC007B14AE47E17A843FE0820020788900209C
:1053CC00B08600206084002080840020508C002057
:1053DC00E495002040420F008C930020E8940020BC
:1053EC00B084002030B108B5FFF7AEFBBDE8084033
:1053FC00FFF7AABE704700BF08B501210D2001F0D0
:10540C009BFB962001F01AFB00210D2001F094FB70
:10541C00962001F013FB01210D2001F08DFB96204D
:10542C0001F00CFB00210D2001F086FB962001F011
:10543C0005FB4FF47A7001F001FBDEE70000000081
:10544C0030B5ABB0404C24A808F03EFD0DF1900CEB
:10545C00BCE80F000FC40022DCF8001023463B48C8
:10546C0043F81019114605F021FF002866D1374B7F
:10547C00374A3849384806F01DF800285ED104F048
:10548C0077FF364B02463449354806F0DFF80028E2
:10549C0054D10BF029FA334B02462F49324806F00F
:1054AC00D5F800284AD103F037FA304B02462A4986
:1054BC002F4806F005F9002840D12E4823490090CA
:1054CC002D481FA3D3E9002306F034F9002835D169
:1054DC0002A805F0A7FB882202A9284801F02CFCA1
:1054EC00A4F1100302221949244805F0A5FB044637
:1054FC0020BB234B234A1E492048009405F04CFC4A
:10550C00E0B91D491D4805F085FCB8B91E4B0A20B1
:10551C001D680AF02DFC88B90AF00EFC451B0A46E2
:10552C001A4C4FF00D004FF0010162F10002C4E97A
:10553C00005201F001FB01202BB030BDFFF75CFFE6
:10554C00002D310100000000208F0020AC950020C0
:10555C0088160020CC060020B8940020E00600201D
:10556C00E8940020F00600208C930020FC0600201C
:10557C00FC950020E5310000448F0020488200207B
:10558C0029010000588C0020E4950020508C00204C
:10559C0070B53B4D2C78032C07D8DFE804F02C2693
:1055AC000702FFF799FA00232B7070BD354ED6E930
:1055BC000023B3F1FF3F08BFB2F1FF3F55D004F019
:1055CC00A5FED6E90023801A61EB0301C92871F10D
:1055DC00000138DA2B78022BE7D12B4826A3D3E92C
:1055EC000023BDE8704005F02FBEFFF729FF28B35C
:1055FC0002232B7070BD254CD4E90023B3F1FF3F7F
:10560C0008BFB2F1FF3F2BD004F080FED4E9002399
:10561C00801A61EB030140F2F513984271F100011D
:10562C00C3DB0121642009F0B1F8B0FA80F0400925
:10563C00287004F06BFEC4E9000170BD2870BDE851
:10564C007040FFF749BA0121642009F09FF8002847
:10565C0018BF03242C7004F059FEC6E90001B9E709
:10566C0004F054FEC4E90001CEE704F04FFEC6E995
:10567C000001A4E7AFF3008000E1F5050000000095
:10568C00D99600207820002048820020702000202D
:10569C0070B501248AB042F2C4430722009406215B
:1056AC0067484FF0FF35FFF74FF9009442F2C443BF
:1056BC000B220A216348FFF747F9009442F2C443D6
:1056CC00102211216048FFF73FF9009442F2C443C5
:1056DC000E220F215D48FFF737F905229FED5C0A7A
:1056EC0003230A215B488DED020A1426CDE900251F
:1056FC002246FEF743FE04229DED020A02230A21F4
:10570C005548CDE900250022FEF738FE15229DED07
:10571C00020A17230A215148CDE900250022FEF781
:10572C002DFE162322460A219DED020A01950096B4
:10573C0006AE4B48FEF722FEDFED4A1A9FED4A1AE1
:10574C00B6EE002ADFED490A9FED490A4948CDED36
:10575C00051A8DED041ACDED030A8DED020A00F049
:10576C0055FFDDED051AB6EE002A9DED041ADDEDB0
:10577C00030A9DED020A404800F048FFDDED051AD2
:10578C009DED041AB6EE002ADDED030A9DED020A2A
:10579C003A4800F03BFFDDED051A9DED041AB6EE1C
:1057AC00002ADDED030A9DED020A354800F02EFFBC
:1057BC00B2EE081AF3EE020A9FED322ADFED321A2E
:1057CC0032229FED320A0221314800F0BDFC3148F3
:1057DC0000F0ECFD304C314B3046314A04F11005F1
:1057EC00304900922822C4F85431C4F858312E4B59
:1057FC00C4F85C21C4F848312C4A2D4B2160C4F804
:10580C004C21C4F8503195E80E0004F055FD294B9D
:10581C0096E8070085E8070027494FF0625204F527
:10582C00C070C4F87C312160C4F8782100F0ECFA27
:10583C0004F28F100AB0BDE8704000F0E5BA00BF6A
:10584C00E49300201C940020549400208C9400209D
:10585C0000409C46D49300200C94002044940020DB
:10586C007C940020CDCC4C3F9A99193F00C07F44CA
:10587C00002080C4F0850020208600205086002067
:10588C00808600205C8F023FE3A51B3E9A99593F0E
:10589C00A493002078890020E0820020ACC5273733
:1058AC00C0060020A4070020C3F51C41CDCCCC3D84
:1058BC00BD3786352D23FA3B900700200120704719
:1058CC0001207047D0F88C0203685B68184700BF52
:1058DC00D0F88C02836000F0FFBE00BF0020704740
:1058EC0090F8A32090F8A200101A704790F8A230FC
:1058FC0090F8A3209A4205D95A1C034480F8A220A0
:10590C00987E70474FF0FF30704700BF90F8A23080
:10591C0090F8A3209A4202D91844807E70474FF029
:10592C00FF307047704700BF0346B0F8300178B1C4
:10593C0093F82F21882A03D9012200205A6070473E
:10594C0002F1010C01201A4483F82FC182F8A51032
:10595C00704700BF38B5B0F830410CB9204638BD9F
:10596C0090F82F310546C3F18904A2420DD8144694
:10597C0005F1A5002246184401F0DEF995F82F3107
:10598C002046234485F82F3138BD01224260EFE7D1
:10599C002DE9F04FD0F814A01524017E8146437EEA
:1059AC0083B00AEB0111384A0AEB0313374F097A1B
:1059BC0093F8283002EB01150901E86852F80180D0
:1059CC0002EB0311D5F804B01B01CE68D558CBF807
:1059DC000040C8F88400D8F804304A6803432C49C6
:1059EC000192C8F804301460C5F884606B683343C6
:1059FC006B60284B4C683A68A3FB0232920C02EBAA
:105A0C00820252004B681B1B9A42FBD84FF0090CC8
:105A1C001F4ADFF880E0D8F80830034202D0AB68A8
:105A2C0033422FD1C5F8886054683968AEFB013118
:105A3C00890C01EB810153681B1B9942FBD8C5F8FB
:105A4C00846054683968AEFB0131890C01EB81012B
:105A5C0053681B1B9942FBD8BCF1010CDBD160468F
:105A6C0099F81830019A0AEB0313DB68CBF8003075
:105A7C0099F819300AEB031ADAF82C30136003B0DA
:105A8C00BDE8F08F0120EBE7A40D0020A42100203D
:105A9C00001000E083DE1B430E4A10B51168046948
:105AAC0005E0DB0107D413685B1A102B08D8636977
:105ABC0013F0007FF5D14FF4FE430120636110BD5C
:105ACC00FFF766FF0028FAD04FF4FE430120636114
:105ADC00F5E700BFE49500202DE9F04790F82FA1E1
:105AEC000569BAF1000F4FD081468846FFF7D4FF05
:105AFC00002849D0374E0024376818E06B69190527
:105B0C0051D4DA0455D4580559D4990441D4326887
:105B1C00D21B322A3DD8544507D9EA6D520704D11D
:105B2C009B0555D4B8F1000F52D002F0CDFD544571
:105B3C00E4D8EA6D500702F00703DFD413E099F8BC
:105B4C00A5200133022442F48062042B2A661ED065
:105B5C008A4503F1010309EB01020ED992F8A52045
:105B6C00042B2A66CAD00121002CE8D0214601332F
:105B7C0001348A4509EB0102F0D8B8F1000FBDD011
:105B8C004FF400732B66B9E70420BDE8F0870124BD
:105B9C00B4E72B694FF40072042043F440732B617B
:105BAC002A66BDE8F0872B69042043F440732B610F
:105BBC00EBE72B69052043F440732B61E5E72B6978
:105BCC004FF40072022043F440732B612A66DCE729
:105BDC000020DAE7E49500202DE9F84F83460C46C7
:105BEC0015461F46D0F810A0FFF756FF002800F00E
:105BFC009E806100012DDFF83C8140F20146CBB262
:105C0C004FF0000138BF0125D8F800900C461E4318
:105C1C00ABF8A21020E09BF8A330872B3FD9DAF821
:105C2C00142010055AD412F4105F70D1D8F800303B
:105C3C00A3EB0903322B6AD89BF8A330AB4209D3F0
:105C4C00022C07D9DAF85C30590703D193054BD4F1
:105C5C00002F49D002F038FD022CDCD8DAF85C3089
:105C6C0003F007025B07D6D4681E224440F4807010
:105C7C004CB9CAF860600134131B032BCBD8022C2F
:105C8C00C9D8002CF5D0012C37D01FB14FF40073BC
:105C9C00CAF860309BF8A3300324872BBFD8DAF8FE
:105CAC005C2012F4E02FC2F3024CB8D0591C9C4477
:105CBC001933C9B25FFA8CFC5BFA83F3DAF8700023
:105CCC004A1C61458BF8A310D1B203F8010FA6D082
:105CDC008929F3D1DAF814201005A4D5DAF810309C
:105CEC0043F44073CAF81030DAF85C3013F4E02F48
:105CFC0006D19BF8A300BDE8F88FCAF86000BAE79C
:105D0C00DAF8103043F40073CAF81030F1E7DAF81F
:105D1C0010304FF4007243F44073CAF81030CAF8D4
:105D2C006020DAF85C3013F4E02FE2D0E8E70420CE
:105D3C00BDE8F88FE4950020F8B506690446D6F85E
:105D4C00145115F4706301D0C6F81431A8070BD5A3
:105D5C00D6F8702111043DD50023012184F8A2301E
:105D6C00234484F8A3109A76EA0710D594F830717E
:105D7C00F7B194F82E7194F82F31BB4226D97B1CC5
:105D8C00274484F82E3197F8A530C6F86031AB055E
:105D9C000DD594F8A30018B1D4F83C3103B1984751
:105DAC000023A4F8A230A4F82E3184F83031F8BDC9
:105DBC00D4F8383103B19847002384F82E310123ED
:105DCC0084F8303194F82F31BB42D8D80023C6F870
:105DDC006031DCE794F8A330872BC5D8591CC9B2C5
:105DEC00BEE700BF0148FFF7A7BF00BFB8210020E6
:105DFC000148FFF7A1BF00BFF82200200148FFF7C0
:105E0C009BBF00BF3824002068230370704700BF7D
:105E1C0030B5012583B004460323009500250222EA
:105E2C006B21007800F04EF90095022304221B210F
:105E3C00207800F047F9009504221C2102232078D9
:105E4C0000F040F92B4606226B21207803B0BDE808
:105E5C00304000F0FBB800BF30B50B4A044683B0AD
:105E6C0006231088254675211A46019015F8010B5A
:105E7C00009500F0CFF86078A0F13400B0FA80F013
:105E8C00400903B030BD00BFC6370020F0B5164640
:105E9C000D4A83B01D461288034604460F460092F5
:105EAC003B2113F8010B062200F030F8B4F8013056
:105EBC005BBA3B80B4F803305BBA3380B4F805307E
:105ECC005BBA2B8003B0F0BDC6370020F0B5164688
:105EDC000D4A83B01D461288034604460F460092B5
:105EEC00432113F8010B062200F010F8B4F801302E
:105EFC005BBA3B80B4F803305BBA3380B4F805303E
:105F0C005BBA2B8003B0F0BDC63700202DE9F04FF3
:105F1C00DFF8FC902DED028B85B0D9F800A0BDF810
:105F2C0040600192002A6FD01F464FF000084300DA
:105F3C00882A08EE100A08EE901ADBB2A8BF882255
:105F4C00324C45464FF0010B02930392029B18EE24
:105F5C00901A204684F830B184F8A53084F82FB11B
:105F6C00FFF7E2FC01212046FFF7B6FD029B18EE7D
:105F7C00101A204684F8A530019B84F830B1A3EBAD
:105F8C000802012384F82FB1872AD4BFD2B2882209
:105F9C00FFF722FE94F8A32094F8A2309A4218D06E
:105FAC00581C04EB030C2EB1D9F80010A1EB0A011C
:105FBC00B1420ED29A4225D99CF81A3084F8A2002C
:105FCC007B55691C94F8A32094F8A2304DB29A42E8
:105FDC00E6D1039B9844019B5FFA88F89845B5D3AA
:105FEC0056B1D9F80030A3EB0A03B34204D3019B9A
:105FFC009D42B8BF4FF0FF35284605B0BDEC028B73
:10600C00BDE8F08FFF23DBE7019DE9E7B821002015
:10601C00E495002030B585B01D46BDF824400DF147
:10602C000F03009414460122FFF770FF60B10121A9
:10603C00621B9DF80F4001FA05F30A44013B9340A3
:10604C0023401341089A137005B030BD2DE9F0417F
:10605C001E461A4B84B014461B88012205468846FE
:10606C0000930DF10F03FFF751FF012306B39DF8C9
:10607C000F60A34046EA0302D6B20127104C4146FA
:10608C00BD40204684F8307184F8A55084F82F71F7
:10609C00FFF74AFC31462046FFF746FC39462046BE
:1060AC00FFF71AFDB0FA80F0400904B0BDE8F081AA
:1060BC009DF80F60A34026EA0306DEE7C6370020F2
:1060CC00B82100202DE9F0411C461C4B84B015462C
:1060DC001B8801220646884600930DF10F039DF89C
:1060EC002870FFF713FF30B32D1B760041460135A6
:1060FC0007FA05F3012707FA04F4DBB2013CAC40C4
:10610C009DF80F50234025EA04050D4C1D432046F5
:10611C0084F8A56084F8307184F82F71FFF704FCC3
:10612C0029462046FFF700FC39462046FFF7D4FCF1
:10613C00B0FA80F0400904B0BDE8F081C637002009
:10614C00B8210020000000009FED136BB7EEE17A40
:10615C000170B5EEC01A80ED022A27EE067B06EE22
:10616C00902AF1EE10FAB7EEC77B80ED047A10D4CA
:10617C00B4EE601AF1EE10FA30FE811AC1EE207AFC
:10618C00F8EEE66A67EEA67A27EE800A80ED010A41
:10619C0070479FED031AF1E7182D4454FB21094079
:1061AC00000000000000000090ED027AB6EE004BFB
:1061BC00B7EEC13A9FED5E6AB7EEC77AD0ED046ACE
:1061CC0020EE060A88B060EE862AD0ED015A27EE42
:1061DC00047B80EE265A27EE037B82EEA64AB7EEAE
:1061EC00C77BB5EE401A27EE067AF0EEC54AF1EE03
:1061FC0010FA87EE266AF0EEC47A77EEA47AB0EE47
:10620C00C67A37EE247A04D1F4EE675AF1EE10FA1E
:10621C0078D9F5EE400AF1EE10FA04D1F4EE475AB3
:10622C00F1EE10FA75D9B7EEC51AB7EEC66AB7EE2D
:10623C00C44AF1EE653A9FED3A7B9FED3B2B21EE84
:10624C00077B26EE026B37EE042B32EE062BB7EEF5
:10625C00C25BB4EEE35AF1EE10FA50D4F4EE455AA8
:10626C00F1EE10FA48BFB0EE655A9FED2D2B24EEDF
:10627C00022B32EE410B30EE060BB7EEC00BF4EEF8
:10628C00C05AF1EE10FA37D4B1EE400AF4EE405A8F
:10629C00F1EE10FA48BFB0EE650A31EE021B31EE9A
:1062AC00061BB7EEC11BB4EEE31AF1EE10FA20D4C4
:1062BC00F4EE415AF1EE10FA48BFB0EE651A37EE23
:1062CC00447B37EE067BB7EEC77BF4EEC75AF1EE94
:1062DC0010FA08D4F1EE473AF4EE635AF1EE10FAE4
:1062EC0048BFF0EE653AF0EE630AF0EE451A08B0DE
:1062FC007047B0EE631AE2E7B0EE630ACDE7B0EE9A
:10630C00635AB2E785EEA77A25EE075A24EE074AC0
:10631C0089E7C5EE877A25EE275A26EE276A82E7AB
:10632C00000000000000000052B81E85EB51D03F69
:10633C000000704284B004B0FFF736BF70EE807A74
:10634C009FED194A30EE210A90ED026AF5EE003A03
:10635C00D0ED044A77EE817A88B0B6EE007A30EE52
:10636C00811A77EEA11A60EE077A21EE071A61EE18
:10637C00A31AB6EE005BB7EEC66A81EE847A26EEFF
:10638C00056BC7EE840A81EE040A27EE247AB7EE79
:10639C00C77A87EE061B60EEA40A20EE240AB7EE3D
:1063AC00C11B08B0704700BF00007042F0B587B049
:1063BC00002300F10807114A02AD04460092C0F810
:1063CC00C83204F11406C0F8CC32C0F8D0322846DA
:1063DC0097E80E0003F070FF094B009395E8070057
:1063EC0087E80700284696E80E0003F065FF95E85D
:1063FC00070086E80700204607B0F0BD4C070020D8
:10640C005407002010B504464FF4327200F094FC8F
:10641C00204610BD10B5B7EEC11A0C462DED0A8BF7
:10642C00B6EE00ABB0EE608AB0EE409A21EE0ABB3D
:10643C00B7EEC88AB7EEC99A28EE0A8B29EE0A9BEA
:10644C00B0EE4B0B11F08CFBB0EE407BB0EE4B0B77
:10645C00F7EEC7BB12F000F8B7EEC0BBB0EE480BBE
:10646C0011F07EFBB0EE40CBB0EE480B11F0F4FF18
:10647C00B7EEC08BB0EE490B11F072FBB0EE407B67
:10648C00B0EE490BB7EECCCBF7EEC78B11F0E4FFB7
:10649C006BEE087AF7EEC06B2BEE888A2BEE8C7ABB
:1064AC0067EEA65A28EE286A68EEE77A2BEE0CBA4D
:1064BC0026EEC88AE7EE285AE7EE267AB0EE467A40
:1064CC00ABEE288AABEE267AC4ED005AC4ED017A05
:1064DC0084ED038ABDEC0A8B84ED027A10BD00BFFB
:1064EC0010B52DED088B90EDB48A84B0B0EE409AC7
:1064FC000446B0EE480AF0EE60AAF0EE418AF0EEE7
:10650C00619A11F0ADFEB0EE40BAB0EE480A11F04F
:10651C00A3FD68EEC07A6BEE286A94EDB37AA9EE0F
:10652C00898A94EDB2AAEBEE2A7ADFED370AE0EE17
:10653C002A6A69462046B0EE600AB0EE481A84ED2D
:10654C00B48AA7EE89AAA6EE897A84EDB2AAB0EE37
:10655C00478A84EDB37AFFF75DFFB7EECA1A9DED5B
:10656C00012AB7EEEA6AB7EEC87A9DED023A9DEDC4
:10657C00034AB7EEC22A9DED005AB7EEC33AB7EE06
:10658C00C44A0022B7EEC55A00231BA1D1E9000171
:10659C0084ED081B84ED0A7BB7EEE81AB7EEE97AB6
:1065AC00C4E91601C4E92401C4E95C0114A1D1E9D0
:1065BC000001C4E90C2384ED0E2B84ED103B84ED1B
:1065CC00124B84ED145B84ED5E6B84ED601BC4E9AF
:1065DC006223C4E96423C4E9662384ED687BC4E9BF
:1065EC006A01C4E97801C4E9B00104B0BDEC088BC0
:1065FC0010BD00BFAFF30080FCA9F1D24D62503F3B
:10660C002D431CEBE2361A3F0000000080ED000A1F
:10661C00C0ED010A80ED021AC0ED031A80ED042AC8
:10662C00704700BF0000000070EE600AB5EE400A33
:10663C0090ED065BB7EEE04AF1EE10FA90ED0A6BC6
:10664C0034EE055B34EE466B80ED065B80ED086B3B
:10665C000ED1F5EE400AF1EE10FA09D19FED1A7B3E
:10666C00B0EE476BB0EE475B80ED067B80ED087BB0
:10667C0090ED037A90ED022AB7EEC77A90ED043ACA
:10668C00B7EEC22A90ED000AB7EEC33A27EE057BAF
:10669C00B7EEC00A80ED0A4BA2EE047BA3EE067B9C
:1066AC00B4EEC70BF1EE10FA0ADC90ED010AB7EE6E
:1066BC00C00AB4EEC70BF1EE10FA58BFB0EE470BA0
:1066CC00704700BFAFF30080000000000000000026
:1066DC0001F056BF01F0EEBE2DE9F047884651B3EC
:1066EC00914662B382460027164C174E25680BE084
:1066FC0001F046FF002810DA01F0E6FF2368DAF813
:10670C0008205B1B934210D2DAF800305B69B3426D
:10671C00EED0504698470028EEDB013708F8010B05
:10672C00B945E3D13846BDE8F087012338468AF8ED
:10673C000C30BDE8F0870F463846BDE8F0871746A9
:10674C00F0E700BFE4950020D1440000A249A34B20
:10675C0088422DE9F047A24C5E699A69D4F80C8006
:10676C001BD9A04B984240F20281C31A9E491B0AC6
:10677C00A1FB031340F22761DB0903EB830303EB5B
:10678C00830303F2E2438B4228BF0B46A3F5487701
:10679C00964BA3FB0737FF0804E0954FB8428CBF1C
:1067AC000E2706278D4908F01F09D1F88030B9450E
:1067BC0043F0C003C1F880300CD228F01F08A1F5BB
:1067CC00F82148EA0708C1F80C800B68002BFCDAAA
:1067DC0008F01F0916F0007324D186490C6986490C
:1067EC00A14300F0EA8082F4805134464FF4805586
:1067FC0014F0605F04D026F060561E43774B5E6148
:10680C0011F4405F07D022F4405274492A438A6144
:10681C008B6C1A07FCD446F00076704A5661936C68
:10682C009B06FCD4754CA04200F2CE804FF0010CBC
:10683C000146634603FB011203F1010E0CF1010545
:10684C00A24218D8BEF1080F4FF0010340F08D8022
:10685C00BCF1040F00F291800A18A24200F2A4804D
:10686C0005FB00F1AC4603F1010E03FB01120CF128
:10687C000105A242E6D90CF1FF318C0286EA812196
:10688C005F4810445F4A90427FD9DFF8A4A16C2284
:10689C005D48584DB0FBFEF0D5F800E0B0FBFCF0C5
:1068AC00DFF890C10EEA0C0CD44509D042F400522A
:1068BC004FF4805CC5F800C02A602A68002AFCDA14
:1068CC00464A156905F007059D4203D01361936C88
:1068DC00DD03FCD411F4E05F09D026F4E05604F497
:1068EC00E0543E4A26435661936C9907FCD44749C1
:1068FC00474A014491423CD8464BC909A3FB01319C
:10690C00090B4B1E1B0286EA030212F4407F06D0D1
:10691C0026F4407603F44073304A334353612F4AD4
:10692C00536923F000735361936C9B06FCD43A4B70
:10693C004F45A3FB00234FF0FF324FEA9343B0FBCC
:10694C00F1F1B2FBF3F3354A1060354A1160354A68
:10695C00136008D228F01F08214A48EA0707D760BD
:10696C001368002BFCDABDE8F087734662E7122748
:10697C0018E74FF440730421C5E70CF1FF312048B0
:10698C0007238C02104486EA8121274ADFF8A8A04D
:10699C00A2FB0020020D2548362A38BF362202FB06
:1069AC0000F042EA0A0A74E74FEA8C24002386EAD4
:1069BC008C214FF0010EAC4662E71D4686F0C054A8
:1069CC0011464FF0C05313E700244FF0010C024660
:1069DC0031462346E64653E700A4781F00C00F401B
:1069EC00000008400046C32323B24C001F85EB5126
:1069FC0000366E0100800D4040300080FFB19F26B4
:106A0C00808D5B00FF7EF64D00643F4D7FD1F0081A
:106A1C007F17B42C9F10E50083DE1B43A4210020BC
:106A2C00A021002068950020819F5E16001BB700F6
:106A3C006C2000807F3001800020008000B97047FE
:106A4C002DE9F84F01218146214C224D224E54E86C
:106A5C00003F2A68306844E80013002BF7D11F4927
:106A6C004B684FF47A7BDFF878A01B1A01270BFBDD
:106A7C0002F8DAF80020A3FB02325A4594BF904486
:106A8C00D84454E8003F2A68306844E80073002B6F
:106A9C00F7D14B68DAF800C01B1A0BFB02F2A3FB10
:106AAC000C3CBCF57A7F94BF624402F57A72A2EB7F
:106ABC000802B2F57A7F06D3B9F1010908F57A78A4
:106ACC00DFD1BDE8F88F01F0FFFD0449D9E700BF25
:106ADC00E8950020E4950020E0950020001000E0EF
:106AEC006895002030B40F4B4FF0010C0E4D0F4C3D
:106AFC0053E8002F2868216843E800C2002AF7D128
:106B0C000B4B5B680B4A5B1A4FF47A71126801FBF2
:106B1C0000F0A3FB023230BC8A4294BF80184018AC
:106B2C00704700BFE8950020E4950020E095002018
:106B3C00001000E068950020362816D80201104B92
:106B4C0003EB00109B5810B4C2685C68144205D06B
:106B5C0061B95DF8044BC3F888207047836851B164
:106B6C00084A5DF8044B1A60704770475DF8044B97
:106B7C00C3F884207047044A5DF8044B1A607047D0
:106B8C00A40D002038F001003830010036280BD855
:106B9C00064B020103EB00109A58C36892681A4224
:106BAC0014BF01200020704700207047A40D002066
:106BBC00362829D8164B0201012903EB00109A58EC
:106BCC0010B45368C4680ED004290CD023EA040313
:106BDC0053608368A9B1022917D003290CBF0D4A51
:106BEC000D4A1A6007E0234301295360836808D0DB
:106BFC0040F638021A60436815225DF8044B1A609F
:106C0C00704738221A60F6E77047044A1A60F2E7B8
:106C1C00A40D0020383001003800010038F00100CC
:106C2C00704700BF362858D80001F0B4344C354DAD
:106C3C002358AB4256D049D8B3F1844F4BD0A5F56D
